:020000040800F2
:10000000A807002001010008A51900089B1100089D
:10001000A1190008790800088724000800000000E2
:100020000000000000000000000000007120000837
:10003000610D000800000000591F000819010008A8
:100040001B0100081B0100081B0100081B01000820
:100050001B0100081B0100081B0100081B01000810
:100060001B0100081B0100081B0100081B01000800
:100070001B0100081B0100081B0100081B010008F0
:100080001B0100081B0100081B0100081B010008E0
:100090001B0100081B0100081B0100081B010008D0
:1000A0001B0100081B0100081B0100081B010008C0
:1000B0001B0100081B0100081B0100081B010008B0
:1000C0001B0100081B0100081B0100081B010008A0
:1000D0001B010008E52100086D2200081B01000833
:1000E0001B0100081B0100081B010008DFF80CD0F1
:1000F00000F0B0FB00480047BD310008A807002011
:100100000648804706480047FEE7FEE7FEE7FEE7B1
:10011000FEE7FEE7FEE7FEE7FEE7FEE785210008D3
:10012000ED00000840EA01039B0703D009E008C97D
:10013000121F08C0042AFAD203E011F8013B00F8AC
:10014000013B521EF9D27047D2B201E000F8012BF8
:10015000491EFBD270470022F6E710B513460A4647
:1001600004461946FFF7F0FF204610BD421E12F864
:10017000013F002BFBD111F8013B02F8013B002BA2
:10018000F9D1704730B505462A460B4612F8010BE7
:1001900013F8014B08B1A042F8D01CB1002802D0DE
:1001A0006D1CF1E7284630BDCAB2401E10F8011F91
:1001B0008A4202D00029F9D100207047421C10F871
:1001C000011B0029FBD1801A704710B5044600E0DE
:1001D000401C0378002BFBD100E0401C521E04D3CE
:1001E00011F8013B0370002BF7D10021017020466C
:1001F00010BD034611F8012B00F8012B002AF9D19C
:10020000184670472DE9FE4F804681EA0300C00F73
:100210000C46009021F0004123F00045B8EB0200AD
:10022000A94105D24046214690461C460B4602464F
:1002300023F00040104347D0270DC7F30A00C3F353
:100240000A510290401A019040286BDAC3F3130060
:1002500040F4801B0098924620B10023D2EB030AA1
:1002600063EB0B0B01985946C0F14002504600F079
:10027000FCF906460D4650465946019A00F014FA1C
:1002800010EB08006141002487EA115284EAE77309
:100290001A4340D0009A62B3019A012A4FEA0752EA
:1002A00015DC001B61EB02014FF0004202EA07522D
:1002B000CDE90042001C41F5801132462B4600F08A
:1002C0004BFA03B0BDE8F08F40462146F9E7001B2A
:1002D00061EB0201001C41F5801300185B412018FE
:1002E000A2F5001747EB030140EAD570B6196D413E
:1002F00011E06D084FEA360645EAC0754FEA07522D
:10030000001B61EB0201001C41F5801149084FEA16
:1003100030000019514132462B4603B0BDE8F04F82
:1003200000F00BBA0098012240000023D0EB02023B
:1003300063EBE073009821464FEAE074B8EB0000ED
:1003400061EB0401E9E783F000435BE781F00041E2
:1003500058E72DE9FE4F81EA030404F0004421F040
:10036000004100944FF0000B23F0004350EA0104D9
:100370005ED052EA03045BD0C3F30A54C1F30A55BA
:100380002C44A4F2F3340194A0FB0254C1F31301F2
:1003900041F48011C3F3130343F4801301FB0244BF
:1003A00000FB034E840A970A44EA815447EA8357C4
:1003B000A4FB076802958D0A05FB07854FEA932C7D
:1003C00004FB0C542705029D4FEA065847EA1637EE
:1003D000B5EB08056EEB070C870E920E47EA811706
:1003E00042EA8312A7FB0201B6EB0B0164EB0004A7
:1003F0002B0D43EA0C335E1844EB1C50DA46514691
:10040000E7FB0201C5F313044FEA0B3343EA14532D
:100410004FEA0432019C43EA0603A4F10C0402945F
:10042000009CCDE900B400F097F903B0BDE8F08F6F
:1004300000200146F9E72DE9F04D81EA030404F0BC
:10044000004B21F0004514464FF0000A23F0004114
:1004500050EA050220D054EA01021DD0C5F30A5724
:100460000246C5F31303C1F31300C1F30A5640F467
:10047000801543F48013A7EB0608101BD64608F23C
:10048000FD3873EB050002D308F1010801E0921872
:100490005B41B8F1000F03DA00200146BDE8F08DA2
:1004A00000204FF48011064684460EE0171B73EBC4
:1004B000050705D3121B63EB050306434CEA010C49
:1004C00049084FEA300092185B4150EA0107EDD12C
:1004D00052EA030012D082EA040083EA05010843CD
:1004E00005D0101BAB4106D20122002306E00022FA
:1004F0004FF0004302E06FF0010253101AEB0600C8
:100500004CEB085110EB0A0041EB0B01BDE8F04D3C
:1005100000F013B9C10F80EAE0700844CA079623BF
:10052000002100F0DCB80EB540F233410291002109
:10053000CDE900110A460B4600F00EF903B000BDEC
:1005400070B5C1F30A5201F000450024C1F3130154
:1005500040F2FF3341F480119A4201DA002070BD6D
:1005600040F233439A42A2F2334203DC524200F09B
:100570008BF800E090402C43F1D0404270BD00F079
:10058000004230F000400AD0C10D01F56071C0F3A7
:10059000160042EA0151C20840071143704700208B
:1005A0000146704701F0004330B421F0004150EAA9
:1005B000010206D00A0DA2F56072C1F31301002AF0
:1005C00002DC30BC00207047440F44EAC104C10083
:1005D000E01830BC00EBC25000F078B830B50B46E4
:1005E000014600202022012409E021FA02F59D4263
:1005F00005D303FA02F5491B04FA02F52844151E37
:10060000A2F10102F1DC30BD2DE9F05F05460020CA
:1006100092469B4688460646814640241BE0284673
:1006200041464746224600F02FF853465A46C01A24
:10063000914110D311461846224600F016F82D1AA3
:1006400067EB01084F4622460120002100F00DF81B
:1006500017EB00094E41201EA4F10104DFDC4846DF
:1006600031462A464346BDE8F09F202A04DB203A63
:1006700000FA02F1002070479140C2F1200320FAF5
:1006800003F3194390407047202A04DB203A21FAF3
:1006900002F00021704721FA02F3D040C2F120029B
:1006A0009140084319467047202A06DBCB17203AB1
:1006B00041FA02F043EAE07306E041FA02F3D04067
:1006C000C2F1200291400843194670470029A8BF93
:1006D0007047401C490008BF20F00100704710B46B
:1006E000B0FA80FC00FA0CF050EA010404BF10BC20
:1006F000704749B1CCF1200421FA04F411FA0CF14D
:1007000018BF012121430843A3EB0C01CB1D4FEA85
:1007100000614FEA102042BF002010BC704700EB80
:10072000C35010440029A4BF10BC7047401C4900AE
:1007300008BF20F0010010BC704710B5141E73F103
:10074000000408DA401C41F1000192185B411A4391
:1007500001D120F0010010BD2DE9F04D92469B46DD
:1007600011B1B1FA81F202E0B0FA80F22032904683
:10077000FFF77BFF04460F4640EA0A0041EA0B01FF
:1007800053465A46084313D0114653EA010019D084
:10079000C8F140025046FFF777FF05460E46504627
:1007A00059464246FFF761FF084305D0012004E0A7
:1007B00020463946BDE8F08D0020054346EAE07644
:1007C0002C4337430A986305E40AA0EB0800002293
:1007D000FD0A44EA47540A3002D500200146E9E701
:1007E000010510196941DDE9084500196941BDE8B5
:1007F000F04DA2E7C1F30A52C1F3130140F2FF33F7
:1008000041F480119A4202DA00200146704740F21A
:1008100033439A42A2F2334202DC5242FFF734BF22
:10082000FFF723BF30B5041E71F1000404DB4FF065
:100830000044404264EB0101141E73F1000405DB27
:100840001C464FF00043524263EB0403994208BF39
:10085000904230BD064C074D06E0E06840F00103D1
:1008600094E8070098471034AC42F6D3FFF742FCF7
:10087000C8320008E832000800BFFEE710B50024C7
:1008800000F02AF804E0601CC4B2012002F0E6FB8C
:100890004FF480410F4800F06EFC08B1642CF2DB8D
:1008A000642C01DB012010BD002404E0601CC4B2F4
:1008B000012002F0D3FB4FF48041064800F05BFCBE
:1008C00008B9642CF2DB642C01DB0120EBE700208B
:1008D000E9E70000000C014008B50121082001F003
:1008E0004DFB4FF48040ADF8000003208DF802006E
:1008F00048208DF803006946014800F0B1FB08BDAF
:10090000000C014010B500F00DF84FF48041044890
:1009100000F03CFC00F0D6F8FFF7B0FF10BD00007F
:10092000000C014008B50121082001F027FB4FF41D
:100930008040ADF8000010208DF8030003208DF8F2
:1009400002006946014800F08BFB08BD000C014025
:1009500008B50121082001F011FB4FF48040ADF8EB
:10096000000010208DF8030003208DF80200694676
:10097000014800F075FB08BD000C014010B50024D3
:1009800004E0601CC4B2012002F068FB4FF4804117
:10099000104800F0F0FB08B1642CF2DB002404E006
:1009A000601CC4B2012002F059FB4FF48041094899
:1009B00000F0E1FB08B9642CF2DB282002F04EFBCA
:1009C0004FF48041034800F0D6FB08B1012010BD70
:1009D0000020FCE7000C014070B50024002506E073
:1009E0006006040EFFF7CAFF0443681CC5B2082D59
:1009F000F6DB204670BD00002DE9F04786B0814649
:100A00008A4600F05FF8FFF739FF00284FD1002435
:100A100005E0FFF7E1FF04A90855601CC4B2052CEE
:100A2000F7DB9DF810009DF8111008449DF8121096
:100A300008449DF8131008449DF8141088423AD1D8
:100A40009DF81100FFF76FFD1C4A1D4BCDE9000119
:100A5000FFF77FFC05460E469DF81000FFF763FD8B
:100A60002A463346CDE90201FFF7CCFB0746FFF7E4
:100A700099FDCAF800009DF81300FFF754FD0F4AD6
:100A80000F4BCDE90001FFF764FC05460E469DF8CB
:100A90001200FFF748FD07462A463346FFF7B2FB30
:100AA000CDE90201FFF77EFDC9F8000003E0012057
:100AB00006B0BDE8F0870020FAE700009A999999FE
:100AC0009999B93F10B5FFF743FF4FF480410748AC
:100AD00000F05AFB142002F09BFA4FF480410348C7
:100AE00000F054FB1E2002F0B9FA10BD000C0140CA
:100AF00010B5002400F070F804E0601CC4B20120BE
:100B000002F0ACFA4FF400510F4800F034FB08B18A
:100B1000C82CF2DBC82C01DB012010BD002404E04E
:100B2000601CC4B2012002F099FA4FF4005106484B
:100B300000F021FB08B9F02CF2DBF02C01DB0120E6
:100B4000EBE70020E9E70000000C01402DE9F84F39
:100B500000F0C8F800F0AEF8FFF7CAFFCC2000F0B4
:100B6000CDF8BE2000F0CAF800F092F8834600F0FD
:100B70008FF80446072C08DDE043C4B26FEA0B008F
:100B800000F0FF0B4FF0000A01E04FF0010AA14610
:100B90004FEA09200FFA80F909EB0B000FFA80F9F0
:100BA0004846FFF7B7FC0090FFF7E9FC0746002234
:100BB000084BFFF7CEFB0546FFF7C2FC0FFA80F9A2
:100BC000BAF1000F02D04846BDE8F88FC9F1000025
:100BD00000B2F9E70000E43F08B54FF40050ADF86B
:100BE000000004208DF803006946024800F038FA3E
:100BF00008BD0000000C014008B54FF40050ADF8EE
:100C0000000003208DF8020010208DF803006946D3
:100C1000014800F025FA08BD000C014010B5012183
:100C2000082001F0ABF9FFF7E7FF4FF4005104484B
:100C300000F0ACFA00F03EF8FFF75AFF10BD0000DC
:100C4000000C014010B5FFF7D7FF4FF400510F48DB
:100C500000F09AFA022002F001FA4FF400510B481A
:100C600000F094FAFFF7B8FF0C2002F0F7F94FF408
:100C70000051064800F07FFA08B1012400E000248A
:100C8000322002F0EBF9204610BD0000000C0140BC
:100C900070B50026012508E0FFF7D4FF0446E00107
:100CA00040EA6600C6B2681CC5B2082DF4DD3046C5
:100CB00070BD000010B5FFF79FFF4FF400510848CA
:100CC00000F062FA40F2EE2002F0C8F94FF4005151
:100CD000034800F05BFA0F2002F0C0F910BD0000DD
:100CE000000C014010B5FFF7E5FFFFF701FFCC2036
:100CF00000F004F8442000F001F810BD70B504467F
:100D0000FFF77AFF012526E004F00106641086B1A2
:100D10004FF40051114800F037FA022002F09EF91A
:100D20004FF400510D4800F031FA3C2002F096F9E2
:100D30000FE04FF40051094800F026FA3C2002F081
:100D40008DF94FF40051054800F020FA022002F01E
:100D500085F9681CC5B2082DD6DD70BD000C0140B8
:100D60007047000010B580210348FFF7F4F9002018
:100D70000249088010BD0000280100203E0000202C
:100D800070B50546002400BF00F050F980B90DA1F0
:100D90000E48FFF7F7F9044654B13A212046FFF711
:100DA00003FA044614B1641C204670BD0020FCE721
:100DB000052002F02DF9281EA5F101018DB2E3D125
:100DC00000BFF2E74950442C000000002801002039
:100DD00008B50121082001F0D1F810208DF803009A
:100DE0000002ADF8000003208DF802006946334888
:100DF00000F036F900224FF48051304800F0C8F975
:100E0000FA2002F005F9012211032C4800F0C0F984
:100E10004FF4FA7002F0FCF8FFF7A4FF28A001F0ED
:100E2000F3FB03E04FF4FA7002F0F2F8C82226A1B7
:100E300023A000F0B1F80028F4D124A001F0E4FBD5
:100E400003E04FF4FA7002F0E3F8C8221EA122A0DA
:100E500000F0A2F80028F4D123A001F0D5FB03E0B4
:100E60004FF4FA7002F0D4F8C82217A121A000F0C4
:100E700093F80028F4D123A001F0C6FB03E04FF45F
:100E8000FA7002F0C5F8FA2220A122A000F084F83E
:100E90000028F4D12BA001F0B7FB03E04FF4FA7067
:100EA00002F0B6F8C8222AA12BA000F075F800289D
:100EB000F4D134A001F0A8FB08BD0000000C0140F3
:100EC00041540D0A000000004F4B000043574D4FA6
:100ED00044450D0A0000000041542B43574D4F4438
:100EE000453D310D0A00000041542B43574448430F
:100EF000500D0A0041542B4357444843503D312C78
:100F0000310D0A0043574A41500D0A00474F542003
:100F10004950000041542B43574A41503D224368F9
:100F2000696E614E65742D322E34472D393333325C
:100F3000222C2231323334353637383930220D0AFB
:100F40000000000043495053544152540D0A000020
:100F5000434F4E4E4543540041542B434950535444
:100F60004152543D22544350222C223138332E32E8
:100F700033302E34302E3339222C363030320D0AB5
:100F8000000000004553503832363620496E6974EF
:100F9000204F4B0D0A0000002DE9F04105460E469A
:100FA00014462846FFF70AF987B23946284601F069
:100FB00013FB0FE000F03AF848B931460948FFF753
:100FC000E1F820B1FFF7CEFE0020BDE8F0810A2055
:100FD00002F01EF8201EA4F101018CB2EAD101201A
:100FE000F3E700002801002030B589B005460C4623
:100FF000FFF7B8FE224608A101A801F015FBC822A0
:1010000009A101A8FFF7C8FF18B92146284601F039
:10101000E3FA09B030BD000041542B434950534519
:101020004E443D25640D0A003E0000000A48008839
:1010300008B9012070470848008808490988884293
:1010400003D1002004490880F4E7034800880349DD
:1010500008800120EEE700003E0000204000002054
:101060002DE9F0410246002500260020002300243F
:10107000002791F803C00CF00F0591F803C00CF0A5
:10108000100CBCF1000F03D091F802C04CEA05052A
:1010900091F800C0BCF1000F31D0146800202BE0A3
:1010A0004FF0010C0CFA00F3B1F800C00CEA030693
:1010B0009E4220D183004FF00F0C0CFA03F7BC4383
:1010C00005FA03FC4CEA040491F803C0BCF1280FB4
:1010D00006D14FF0010C0CFA00FCC2F814C00AE073
:1010E00091F803C0BCF1480F05D14FF0010C0CFA88
:1010F00000FCC2F810C0401C0828D1D31460B1F81D
:1011000000C0BCF1FF0F34DD546800202EE000F178
:10111000080C4FF0010808FA0CF3B1F800C00CEA13
:1011200003069E4221D183004FF00F0C0CFA03F707
:10113000BC4305FA03FC4CEA040491F803C0BCF17B
:10114000280F05D100F1080C08FA0CF8C2F8148039
:1011500091F803C0BCF1480F07D100F1080C4FF023
:10116000010808FA0CF8C2F81080401C0828CED3F9
:101170005460BDE8F0810246002093680B400BB13B
:10118000012000E000207047416170470161704715
:101190000AB1016100E04161704700BFFEE710B590
:1011A0004FF4A06000F038FC01F010FF4FF4E13084
:1011B00001F06CF94FF4E13001F0B8F900F01CF8DF
:1011C000FFF7A0FBFFF72AFD00F002F810BD0000BA
:1011D00008B50121102000F0D1FE4FF44040ADF8D9
:1011E000000048208DF8030069460248FFF738FFE9
:1011F00008BD00000010014008B50121142000F0D6
:10120000BDFE4FF40050ADF8000010208DF8030033
:1012100003208DF8020069460948FFF721FF0320EB
:10122000ADF8000010208DF8030003208DF80200B7
:1012300069460448FFF714FF01200349086008BD10
:101240000010014000080140B401224210B50446DC
:10125000207B012802D1206801F034FF00202060AB
:101260006060A060207310BD0246002301230DE0E2
:1012700002F07F000870D2092AB1087840F080009F
:101280000870491C01E0184670475B1C042BEFDD19
:101290004FF0FF30F8E770B504460E460025206891
:1012A00098B901202073304601F0D8FF20602068F3
:1012B000E0B100206060A66003E00020216848558E
:1012C0006D1CA068A842F8D810E00220207303E04B
:1012D0000020216848556D1CA068A842F8D800205D
:1012E0006060A068B04201D20020206070BD0000A4
:1012F0002DE9FF5F07460D4690463846FEF75EFF34
:1013000086B22846FEF75AFF1FFA80FA4FF000090E
:10131000B01D01F0A3FF04461CB9012004B0BDE8D4
:10132000F09FB11D2046FEF716FF12A00168216054
:101330008088A080324639462046FEF746FF284680
:10134000FEF73CFF83460120002100915B462A46C0
:10135000CDE90208019121460A2000F05FF910B999
:101360004FF0000901E04FF00109204601F0AAFE0C
:101370004846D3E724637273702F00002DE9FF4FB6
:1013800083B082468B469146159C00250020029032
:101390000F2701904846FEF711FF0FFA80F8B9F1C8
:1013A000000F03D1012007B0BDE8F08F08F1020063
:1013B000384487B2109808B145F00205129878B108
:1013C00045F004051298FEF7F9FEC0B2029013989A
:1013D000FEF7F4FE01460298001D0844384487B227
:1013E000119820B1012804D0022808D104E000BFE0
:1013F00007E045F00C0504E045F0140501E002208B
:10140000D1E700BF149808B145F02405BAF1000FE8
:1014100002D0BBF1000F01D10320C4E745F0C005A5
:101420005046FEF7CBFE06465846FEF7C7FE304450
:10143000001D384487B239462046FFF72CFF20684C
:1014400008B90420AFE739462068FEF784FE102172
:101450006268501C606020688154D4E90023D11870
:10146000781FFFF701FF00B201900198002804DA0D
:101470002046FFF7EBFE052095E7616801980844D8
:10148000606000216268501C606020688154042103
:101490006268501C6060206881544D216268501C55
:1014A00060602068815451216268501C606020682F
:1014B000815454216268501C6060206881546268C5
:1014C000501C60602068815404216268501C606078
:1014D000206881546168481C606020684554069803
:1014E000010A6268501C6060206881540698C1B28D
:1014F0006268501C606020688154C8F307216268EC
:10150000501C6060206881546268501C60602068D4
:1015100000F80280D4E90012881842464946FEF7D6
:1015200054FE60684044606005F00400B8B30026D3
:10153000139808B938A013901298FEF73FFE86B2B0
:10154000310A6268501C6060206881546268501CD7
:10155000606020688654D4E90012881832461299D7
:10156000FEF733FE6068304460601398FEF726FE95
:1015700086B2310A6268501C6060206881546268DB
:10158000501C606020688654D4E9001288183246E6
:101590001399FEF71AFE60683044606000BF05F0E2
:1015A0008000C8B15046FEF709FE86B2310A626873
:1015B000501C6060206881546268501C6060206824
:1015C0008654D4E90012881832465146FEF7FDFDD4
:1015D00060683044606000BF05F04000C8B1584604
:1015E000FEF7ECFD86B2310A6268501C606020682C
:1015F00081546268501C606020688654D4E90012EF
:10160000881832465946FEF7E0FD60683044606055
:1016100000BF0020C7E60000000000002DE9FF4FDA
:1016200083B0834690469946139C002600250020EF
:10163000029001900027BBF1000F03D1012007B0F9
:10164000BDE8F08F00250AE00498405D232803D010
:101650000498405D2B2801D10220F0E76D1C04980E
:10166000405D0028F0D147F03007119808B147F0ED
:10167000010705EB0900861C109820B1012804D051
:1016800002280AD105E000BF09E047F00207B61CB6
:1016900005E047F00407B61C01E00320CFE700BFD8
:1016A00098F80000022822D14FF0000A00BF5046EF
:1016B0000AF1010A18F800007D28F8D1AAF1030AFE
:1016C0000AF1070002900298A9EB000AF01CA0EBB7
:1016D0000A012046FFF7DFFD206808B90420AEE7C5
:1016E000F21CA2EB0A012068FEF735FD0BE0F11CAD
:1016F0002046FFF7D0FD206808B904209FE7F11CC1
:101700002068FEF728FD6168481C60602068475427
:10171000D4E9000281183046FFF7A6FD0190019838
:10172000002804DA2046FFF791FD052087E761686D
:10173000019808446060C5F307216268501C60602E
:10174000206881546268501C606020688554D4E928
:10175000001288182A460499FEF737FD606828446D
:101760006060109860B14FEA1B216268501C606095
:10177000206881546268501C6060206800F802B0E4
:10178000B8F1000F19D098F8000002280BD1D4E965
:10179000001288184146029AFEF7C4FC616802985C
:1017A0000844606009E0D4E9001288184A464146BE
:1017B000FEF7B8FC60684844606000203FE7000026
:1017C0002DE9FF4107460D4690461E460A9C012022
:1017D0000021CDE90001EB1C0A460FA1CDE902046E
:1017E0000A20FFF71BFF88B96168481C6060206809
:1017F0004654C5F307216268501C6060206881541C
:101800006268501C60602068855403E0012004B0C9
:10181000BDE8F0810020FAE724647000F0B50446CA
:101820000D462646012300201060002114E0775C5D
:1018300007F07F07106807FB03001060705C00F082
:10184000800008B9481CF0BDDB01B3F5001F02D3CE
:101850006FF00100F7E7491CA942E8DB4FF0FF30C9
:10186000F1E72DE9F84380460C4615461E462F2128
:1018700008F10600FEF798FC07460020009017B913
:101880000120BDE8F8837F1C6A46042108F10100AD
:10189000FFF7C4FF252001F0E1FC2060206808B9B3
:1018A0000220EEE725212068FEF755FC2422394668
:1018B0002068FEF737FC243700982C3830803188B8
:1018C000481C01F0CBFC2860286820B9206801F092
:1018D000F9FB0320D5E73288511C2868FEF73BFC52
:1018E000328839462868FEF71DFC0020C9E701460A
:1018F0004878022801D001207047887810B1887894
:10190000012801D1C878F7E7FF20F5E701464878BC
:10191000022801D001207047887820B9C8780A28A9
:1019200001D10020F7E70120F5E70000F8B50446F3
:10193000FF2720780511012D01DB0E2D01DD384632
:10194000F8BD032D24D1002000906A460421601CBC
:10195000FFF764FF2044461C0098022803D3207838
:1019600000F0010008B1FF20EAE77078317840EA22
:101970000120801C0099884201D9FF20E0E706A1E0
:10198000B01CFEF7FFFB08B10F2700E0032700E0C3
:101990002F463846D4E700002463726571000000CA
:1019A00000BFFEE77047000070B5002100230F2242
:1019B000C47804B3154C246804F4E064C4F5E0640E
:1019C000210AC1F10403CA40447804FA03F184787F
:1019D0001440214309010E4C0678A155047804F007
:1019E0001F050124AC4005786D11AD0005F1E0251F
:1019F000C5F8004109E0047804F01F050124AC405B
:101A0000044D0678761145F8264070BD0CED00E0D7
:101A100000E400E080E100E002490143024A116075
:101A2000704700000000FA050CED00E010B5FFF76C
:101A3000CFF903E04FF4FA7001F0EAFA00F008F889
:101A40000028F7D10149086010BD0000B40122420E
:101A500030B58BB000200790089009900A900125BE
:101A60002BA32EA230A132A000F0CEFD07A80021AA
:101A700002910391CDE9041000912B0224A201915F
:101A800026A129A0FFF77AFC00283BD1089A91B241
:101A90000798FFF7A9FAFA20FFF772F90446002C1D
:101AA0002CD02046FFF742FF022827D12046FFF71F
:101AB0001EFF06281DD2DFE800F003080C101418E2
:101AC00027A000F0A1FD002517E02AA000F09CFD52
:101AD00013E02FA000F098FD0FE036A000F094FD79
:101AE0000BE03CA000F090FD07E043A000F08CFD6F
:101AF00003E04CA000F088FD00BF00BF07A8FFF77F
:101B0000A5FB02E04EA000F07FFD28460BB030BDE3
:101B100036373633303032353200000077776A316D
:101B20003233343536000000343031313335000083
:101B30004F6E654E65745F4465764C696E6B0D0A39
:101B400050524F49443A2025732C09415549463A91
:101B50002025732C0944455649443A25730D0A0043
:101B6000546970733A09C1ACBDD3B3C9B9A60D0AA3
:101B7000000000005741524E3A09C1ACBDD3CAA77C
:101B8000B0DCA3BAD0ADD2E9B4EDCEF30D0A0000BB
:101B90005741524E3A09C1ACBDD3CAA7B0DCA3BA73
:101BA000B7C7B7A8B5C4636C69656E7469640D0A7C
:101BB000000000005741524E3A09C1ACBDD3CAA73C
:101BC000B0DCA3BAB7FECEF1C6F7CAA7B0DC0D0AE7
:101BD000000000005741524E3A09C1ACBDD3CAA71C
:101BE000B0DCA3BAD3C3BBA7C3FBBBF2C3DCC2EB5D
:101BF000B4EDCEF30D0A00005741524E3A09C1AC84
:101C0000BDD3CAA7B0DCA3BAB7C7B7A8C1B4BDD308
:101C100028B1C8C8E7746F6B656EB7C7B7A8290D40
:101C20000A0000004552523A09C1ACBDD3CAA7B060
:101C3000DCA3BACEB4D6AAB4EDCEF30D0A000000F0
:101C40005741524E3A094D5154545F5061636B6590
:101C500074436F6E6E656374204661696C65640DD4
:101C60000A0000002DE9F04188B0044620216846B2
:101C7000FEF771FA28A12046FEF7BBFA202168463C
:101C8000FEF769FA25480068FEF779FC0546002250
:101C9000234BFEF7D0FB07463A460B4621A1684688
:101CA00000F0C2FC69462046FEF760FA2021684633
:101CB000FEF751FA20480068FEF761FC05462A4607
:101CC0000B461EA1684600F0AFFC69462046FEF7B1
:101CD0004DFA20216846FEF73EFA1C481CA1026816
:101CE000684600F0A1FC69462046FEF73FFA202135
:101CF0006846FEF730FA194819A10268684600F0F4
:101D000093FC69462046FEF731FA2046FEF756FA64
:101D1000C0B208B0BDE8F0812C3B000004000020F8
:101D20000000244074656D70657261747572653170
:101D30002C252E31663B00000800002068756D6977
:101D400064697479312C252E30663B0048000020F0
:101D500076616C7565322C25643B00004C000020D8
:101D600076616C7565332C25643B00002DE9F041EC
:101D700088B00646002004900590069007900390D6
:101D80000290019000240025002780463046FFF78E
:101D9000CDFD0446042C22D00F2C26D101AB03AA82
:101DA00002A93046FFF75DFD0546BDB9BDF8043018
:101DB0002AA0DDE9021200F027FC04AADDE90201F5
:101DC000FFF796FA50B92EA000F01EFC059A91B2CA
:101DD0000498FFF709F904A8FFF738FA08E030463D
:101DE000FFF794FD00B903E000BF4FF0FF3500BFDF
:101DF00000BFFEF7B7FF681C10B908B0BDE8F0815E
:101E000025A10398FEF7BEF918B100202449086007
:101E100007E024A10398FEF7B5F910B1012020498D
:101E2000086022A10398FEF7ADF918B100202149FE
:101E3000086007E020A10398FEF7A4F910B1012083
:101E40001C4908600F2C01D0032C05D1029801F029
:101E500039F9039801F036F900BFCEE7636D646984
:101E6000643A2025732C207265713A2025732C204A
:101E70007265715F6C656E3A2025640D0A00000082
:101E8000546970733A0953656E6420436D645265FA
:101E900073700D0A000000004B4559313A300000C4
:101EA000480000204B4559313A3100004B4559322A
:101EB0003A3000004C0000204B4559323A310000C6
:101EC00030B5A5B0002021902290239024900024CA
:101ED0000025802101A8FEF73EF901A8FFF7C2FE08
:101EE0000446002C20D021A8052300222146009082
:101EF0000EA0FFF765FCA0B908E001A8415D229A99
:101F0000501C229021988154681C05B2A542F4DB34
:101F1000229A91B22198FFF767F821A8FFF796F966
:101F200002E005A000F070FB25B030BD3637363337
:101F300030303235320000005741524E3A094544A4
:101F4000505F4E6577427566666572204661696CC2
:101F500065640D0A000000007047000029B1064AC0
:101F6000D2690243044BDA6104E0034AD269824336
:101F7000014BDA61704700000010024029B1064AA7
:101F800092690243044B9A6104E0034A92698243D6
:101F9000014B9A61704700000010024030B50021EB
:101FA0000022002400232D4D6D6805F00C0121B1A5
:101FB000042905D0082923D105E0294D056022E038
:101FC000274D05601FE0254D6D6805F47012234D07
:101FD0006D6805F48034022505EB92421CB9214D51
:101FE000554305600BE01D4D6D6805F400351DB1CE
:101FF0001C4D5543056002E0194D5543056002E054
:10200000174D056000BF00BF144D6D6805F0F0016D
:102010000909154D6B5C0568DD4045600F4D6D6825
:1020200005F4E061090A104D6B5C4568DD40856090
:102030000A4D6D6805F46051C90A0B4D6B5C45682B
:10204000DD40C560054D6D6805F44041890B074DC5
:102050006B5CC568B5FBF3F5056130BD001002404F
:1020600000127A0000093D002A0000203A000020FA
:10207000704710B500F002F810BD00000CB500204C
:10208000019000903348006840F480303149086086
:1020900000BF3048006800F4003000900198401CF8
:1020A0000190009818B90198B0F5A06FF1D12948B6
:1020B000006800F4003010B10120009001E0002021
:1020C00000900098012843D12348006840F0100098
:1020D000214908600846006820F0030008600846AF
:1020E000006840F0020008601A48406819494860DA
:1020F0000846406848600846406840F48060486090
:102100000846406820F47C1048600846406840F467
:10211000E81048600846006840F08070086000BF22
:102120000C48006800F000700028F9D009484068A9
:1021300020F00300074948600846406840F002006C
:10214000486000BF0348406800F00C000828F9D13F
:102150000CBD00000010024000200240042808D1FD
:102160004FF0E021096941F004014FF0E0221161D4
:1021700007E04FF0E021096921F004014FF0E0226F
:102180001161704710B51348006840F00100114913
:10219000086008464068104908400E4948600846F3
:1021A00000680E4908400B4908600846006820F4A2
:1021B000802008600846406820F4FE0048604FF424
:1021C0001F008860FFF755FF4FF00060044908606A
:1021D00010BD0000001002400000FFF8FFFFF6FEF7
:1021E00008ED00E010B540F225511D4800F086F8DA
:1021F00010B31B4800F03EF9C4B21A48008800F43E
:102200000040C8B91748008800F4804060B10A2C2B
:1022100003D000201349088020E01248008840F4D1
:1022200000401049088019E00D2C06D10D480088A7
:1022300040F480400B49088010E00A480088C0F351
:102240000D0009490C5407480088401C05490880C6
:1022500008460088C72801DD0020088010BD000066
:1022600000380140280000206000002010B540F236
:1022700025510E4800F042F8B0B10D480088802882
:1022800002D300200A4908800848001D0088C1B216
:10229000074802880088401C054B18800548815477
:1022A0002021024800F008F810BD00000044004062
:1022B0003E0000202801002001F40072B2F5007FEA
:1022C00000D100BFCA430280704721B1828942F425
:1022D0000052828104E082894DF6FF731A408281A8
:1022E000704702460020B1F5007F00D100BF13887F
:1022F0000B400BB1012000E00020704770B5024692
:10230000002400230025002040F66A16B14200D1C7
:1023100000BFC1F3421501F01F03012606FA03F3C3
:10232000012D02D19689334006E0022D02D1168A92
:10233000334001E0968A33400C12012606FA04F479
:102340001688344013B10CB1012000E0002070BDAC
:10235000F0B50346002400260025002040F66A1749
:10236000B94200D100BF1846C1F3421401F01F0664
:10237000012707FA06F5012C01D10C3004E0022CEC
:1023800001D1103000E014301AB107682F43076004
:1023900002E00768AF430760F0BD00002DE9F04799
:1023A00086B005460E460024A24600BFA14600277F
:1023B000B08900B100BF2F462C8A4CF6FF70044054
:1023C000F08804432C82AC894EF6F3100440B088A8
:1023D00031890843718908430443AC81AC8A4FF6C4
:1023E000FF400440B0890443AC8201A8FFF7D6FD4A
:1023F0001F48874202D1DDF810A001E0DDF80CA0F3
:10240000A88900F4004040B10AEBCA0000EB0A10B2
:1024100031684900B0FBF1F807E00AEBCA0000EBB5
:102420000A1031688900B0FBF1F86420B8FBF0F0C5
:1024300004012009642101FB1089A88900F40040EF
:1024400040B1322000EBC900B0FBF1F000F0070012
:10245000044308E0322000EB09106421B0FBF1F0E6
:1024600000F00F0004432C8106B0BDE8F0870000A7
:102470000038014001468888C0F308007047C1F366
:1024800008028280704700BFFEE7000010B586B0EA
:102490000446012144F20400FFF770FD4FF4007080
:1024A000ADF8140003208DF8160018208DF81700E1
:1024B00005A91C48FEF7D4FD4FF48060ADF8140068
:1024C00004208DF8170005A91648FEF7C9FD252040
:1024D0008DF8000003208DF801008DF80200012026
:1024E0008DF803006846FFF75FFA01940020ADF80D
:1024F0000800ADF80A00ADF80C00ADF810000C2093
:10250000ADF80E0001A90848FFF748FF012240F28C
:1025100025510548FFF71CFF01210348FFF7D5FEB1
:1025200006B010BD000801400038014010B586B06B
:10253000044601210420FFF721FD01214804FFF793
:102540000DFD18208DF817000420ADF814000320AD
:102550008DF8160005A91E48FEF782FD04208DF8AF
:1025600017000820ADF8140003208DF8160005A907
:102570001748FEF775FD01940020ADF810000C20FF
:10258000ADF80E000020ADF80C00ADF80A00ADF873
:10259000080001A90F48FFF701FF01210D48FFF7CF
:1025A00094FE012240F225510A48FFF7D1FE262071
:1025B0008DF8000001208DF8030000208DF8010047
:1025C0008DF802006846FFF7EFF906B010BD000075
:1025D000000801400044004070B504460D46002646
:1025E0000DE014F8011B0748FFF749FF00BF402129
:1025F0000448FFF776FE0028F9D0701C86B2AE4280
:10260000EFDB70BD004400400FB4054B10B503A9CB
:10261000044A029800F0EEF810BC5DF814FB0000CC
:10262000A9300008240000200FB4084B10B504A9FD
:1026300002AA039800F0DEF8044602A9002000F088
:1026400070FC204610BC5DF814FB0000232F00082E
:1026500002E008C8121F08C1002AFAD1704770476B
:10266000002001E001C1121F002AFBD170470000C9
:102670002DE9FF5F82B00021DDE90430020DDDF8B5
:1026800040B0034318D044F61050A2F2FF32424348
:102690001514119801281FD0A5EB0B00401C5FEA10
:1026A000000A4FF000064E4FDFF83891B046504612
:1026B00015D5CAF1000413E0119801244AA301289A
:1026C00001D16FEA0B010298119AC0E90031C0E90B
:1026D000024206B0BDE8F09FCBF10000DFE7044600
:1026E0000021404A491842EB0450CDE9001012E0A5
:1026F000E00707D032463B4640464946FDF729FEF3
:102700008046894632463B4610461946FDF721FE73
:1027100006460F466410002CEAD1DDE90401DDE92C
:102720000023BAF1000F06DAFDF713FE42464B46CE
:10273000FDF70FFE05E0FDF77EFE42464B46FDF736
:102740007AFE04460E460022284BFEF76BF803D8AB
:102750004FF0FF30014607E00022254B204631466E
:10276000FDF750FDFEF746F8102409E0002C0ADBC7
:102770000A220023FDF748FF039B30321A55641EDE
:1027800050EA0102F2D1641C039AC4F1110314440B
:10279000119A012A03D0012208430DD10AE008430F
:1027A00004D000204FF0110B119072E7A3EB0B0542
:1027B0006D1E0DE05B4504DD4FF0000205F10105E3
:1027C00004E003DA4FF00002A5F10105002AECD085
:1027D00002981199C0E90231C0E9004579E700008B
:1027E000000014400000F03F300000000000F04303
:1027F0000000E03F2DE9FF4F95B09B468946064615
:1028000000250FE2252877D100242746F84A012128
:10281000059400E0044316F8013F203B01FA03F061
:102820001042F7D130782A2811D06FF02F0330787A
:10283000A0F13002092A16D8059A44F0020402EBEE
:10284000820203EB42021044761C0590EFE759F830
:10285000042B0592002A03DA504244F400540590F8
:1028600044F00204761C30782E2816D116F8010F99
:1028700044F004042A280DD06FF02F023078A0F124
:102880003003092B09D807EB870302EB4303C71872
:10289000761CF3E759F8047B761C30786C280FD04F
:1028A00006DC4C2817D068280DD06A2814D104E023
:1028B000742810D07A280FD10DE044F400140AE0F7
:1028C00044F4801401E044F440147278824202D14E
:1028D00004F58014761C761C307866280BD013DC47
:1028E000582877D009DC002875D04528F6D046282E
:1028F000F4D047281AD19DE118E0632835D0642828
:1029000079D0652812D195E1702873D008DC67284A
:10291000F1D069286FD06E280DD06F2806D1B5E0B0
:1029200073282CD0752875D0782874D05A461799FA
:1029300090476D1C75E1C4F30250022809D00328AA
:102940000DD0D9F8001004280DD00D6009F104094C
:1029500067E1D9F80010EA17C1E90052F6E7D9F8A3
:1029600000100D80F2E70D70F0E719F8041B8DF8E8
:10297000001000208DF80100EA46012003E059F81C
:1029800004AB4FF0FF3061074FF0000102D40DE0BF
:1029900008F101018846B9420FDA8045F8DB1AF8E0
:1029A00008100029F4D108E008F1010188468142AD
:1029B000FADB1AF808100029F6D105985B46A0EB5F
:1029C000080721463846179A00F094FA284400EB8D
:1029D000080507E04DE029E10DE01AF8010B5A4621
:1029E00017999047B8F10108F7D25B46214638465F
:1029F000179A13E142E00A220092C4F302524FF008
:102A0000000A022A08D059F804CB032A4FEAEC71D5
:102A10000AD00DE029E02AE009F1070121F00702C0
:102A2000F2E802C1914609E00FFA8CFC4FEAEC7122
:102A3000042A03D14FFA8CFC4FEAEC71002907DA23
:102A40000A460021DCF1000C61EB02012D2202E0BC
:102A5000220504D52B228DF80420012203E0E20791
:102A600001D02022F7E7904659E00A2102E0102227
:102A70000DE010214FF0000A00910BE010224FF002
:102A8000000A44F004040827009203E008224FF0F3
:102A9000000A0092C4F30252022A05D059F804CB6E
:102AA0000021032A08D009E009F1070121F00702FB
:102AB000F2E802C1914605E01FFA8CFC042A01D11C
:102AC0000CF0FF0C4FF00008220728D5702806D024
:102AD000009B83F0100353EA0A0305D00EE0402266
:102AE0008DF80420012208E05CEA010206D03022C1
:102AF0008DF804208DF8050002229046009B83F09B
:102B0000080353EA0A030AD15CEA010201D1620711
:102B100005D530228DF804204FF001087F1E58287B
:102B200004D034A003900EA802900DE036A0F9E77F
:102B300053466046009AFDF767FD84460398825C21
:102B40000298401E029002705CEA0100F0D10298E7
:102B500006A9081A00F1200A600702D524F480347F
:102B600000E00127574502DDA7EB0A0000E0002046
:102B700000EB0A01009005984144401A0590E003DB
:102B800006D45B462146179A059800F0B3F9054430
:102B9000002706E001A85A46C05D179990476D1CB2
:102BA0007F1C4745F6DBE0030CD55B462146179AB0
:102BB000059800F09FF9054404E030205A46179923
:102BC00090476D1C0099481E00900029F5DC08E034
:102BD000029802995A460078491C02911799904729
:102BE0006D1CBAF10001AAF1010AF1DC65E10000F7
:102BF00009280100303132333435363738396162D3
:102C00006364656600000000303132333435363796
:102C100038394142434445460000000000F058F96D
:102C20000544761C307800287FF4ECAD19B02846B6
:102C3000BDE8F08F620700D4062709F1070222F0F1
:102C4000070CFCE80223E14603F000485FEA080CA9
:102C500002D00FF2702C0DE05FEA045C02D50FF297
:102C6000682C07E05FEAC47C02D00FF2602C01E020
:102C7000AFF2700C4FF0FF3823F00043CDF850C096
:102C800065280CD006DC452809D046281DD04728E9
:102C90003DD13DE0662818D067287ED138E000217C
:102CA000112F01DB112000E0781CCDE9000106A9FD
:102CB0000EA8FFF7DDFCDDE90F010E9A039100215C
:102CC000009207F1010A04914DE04FF00040009797
:102CD000CDE9011006A90EA8FFF7CAFCDDE90F0235
:102CE00003920E9B11990022DDF80CA00093049230
:102CF00011B9791C00EB010AB7EB0A0004D4C0F14A
:102D0000FF3007F1010A0490AAEB0700019044E0AC
:102D1000012F00DA01270021112F01DD112000E031
:102D20003846CDE9000106A90EA8FFF7A1FCDDE9B0
:102D30000F010E9A0391002104910092BA462107D7
:102D40000CD40399514500DA8A46BAF1010F05DD2A
:102D5000009AAAF10101515C302908D0B84202DA88
:102D600010F1040F06DA0121CDE9011015E0AAF1F6
:102D70000101E9E7002805DC049901440491AAEB6C
:102D8000000102E0411C514500DD8A460499401AC9
:102D9000401C01904FF000400290200704D401989D
:102DA000504501DBCDF8048000208DF84F000298DB
:102DB0000DF14F07B0F1004F25D02B200E90029857
:102DC0004FF0020800280CDA404202902D200E90AD
:102DD00007E00A210298FDF701FC3031029007F864
:102DE000011DB8F10001A8F10108F2DC02980028E9
:102DF000EFD1791E0E980870307800F0200040F076
:102E0000450007F8020D12A8C01B00F1070814982E
:102E1000007800B1012000EB0A01019801EBE0719C
:102E200005984144401A401E0590E00306D45B46D5
:102E30002146179A059800F05DF80544149800782B
:102E400018B15A46179990476D1CE00324D55B468C
:102E50002146179A059800F04DF805441CE00498A7
:102E6000002807DBDDE90301884203DD0098405CB0
:102E7000179901E0179930205A469047049805F1B8
:102E80000105401C04900198401E019004D12E20A1
:102E90005A46179990476D1CBAF10001AAF1010A30
:102EA000DDDC05E017F8010B5A46179990476D1CB9
:102EB000B8F10001A8F10108F4DC5B462146179A3D
:102EC0000598ABE62D0000002B000000200000005C
:102ED0002DE9F041044600251E461746880404D417
:102EE00005E039462020B0476D1C641EF9D5284600
:102EF000BDE8F0812DE9F041044600251E469046CC
:102F0000C80301D5302700E02027880404D505E058
:102F100041463846B0476D1C641EF9D52846BDE8C9
:102F2000F0810A68531C0B601070704710B50120C7
:102F300000F0F0F82148006840B3204800680128FC
:102F400002D002280CD105E01D480068401C1C4935
:102F5000086005E01B480068401C1A49086000BF73
:102F600000BF1749086800EBD0714910A0EB410180
:102F7000134A11601349086800EBD0714910A0EBA7
:102F80004101104A116000200C4908600C4800689B
:102F9000012802D10C49086002E000200A490860BB
:102FA00008480068012803D10749091F086003E0A9
:102FB00000200549091F086010BD000044000020E2
:102FC000480000204C0000208401214210B56FF021
:102FD0000400FFF7C3F80A4800680A49B0FBF1F0A3
:102FE000094908700846007800EB4001C1EBC010A9
:102FF0004FF6FF7101EAC0000449088010BD0000CF
:103000000C00002000127A00200000202200002086
:103010000146114A12884A434FF0E0235A610022C8
:103020009A611A46126942F001021A6100BF4FF01C
:10303000E022106900F001021AB100F48032002A87
:10304000F5D04FF0E022126922F001024FF0E023A8
:103050001A6100229A617047220000200146114A3D
:1030600012784A434FF0E0235A6100229A611A46CF
:10307000126942F001021A6100BF4FF0E0221069AC
:1030800000F001021AB100F48032002AF5D04FF0AE
:10309000E022126922F001024FF0E0231A610022BF
:1030A0009A6170472000002000BF054A128802F094
:1030B0004002002AF9D0C2B2014B1B1D1A80704792
:1030C0000038014010B5002821D0114B0022001F0C
:1030D000196803E0814203D80A4649680029F9D1FA
:1030E00052B11368841A9C4204D1006818441060DD
:1030F000104602E0506000E0186039B102680B1A17
:10310000934203D10B681A4402604968416010BDC4
:103110005800002010B504464FF480412348FEF7C4
:103120002AF828B14FF400412048FEF724F818BBD4
:103130001F48006801281ADD00201D4908604FF46F
:1031400080411A48FEF717F818B90120194908609C
:1031500008E04FF400411548FEF70DF810B90220C1
:10316000144908601CB913480068134908601048E6
:103170000068401C0E490860012C15D10D480068FC
:1031800090B1A1030948FDF7F6FF01280CD1C10356
:103190000648FDF7F0FF012806D1064800680649F9
:1031A000086000200349086010BD000000100140C5
:1031B00054000020500000204400002000254FF45F
:1031C00096760024FDF7EBFFFEF730FCFEF778FE65
:1031D0003BE00120FFF71CFF701C86B2641CFFF768
:1031E000A5FE012E07D0652E0AD0C92E10D0A6F25A
:1031F0002D10A0B911E015491548FDF7FDFB0FE0B2
:10320000FDF7A4FC0746FDF785F91249086007E0C1
:10321000FEF756FEFDF7A6FD02E0002600E000BF27
:1032200000BF0020FDF7ACFD054615B12846FEF7AE
:103230009DFD142C03D101200749086005E0282CCE
:1032400003D10020044908600024C2E708000020E0
:103250000000002004000020B4012242F0B50B3031
:10326000154D20F007010024144A0FE003688B423B
:103270000BD38B4205D95E1A43184768C3E9006730
:1032800000E04368136002C004E0021D10680028DB
:10329000ECD12046002802D1286808B10020F0BDFA
:1032A000064A07481060074A121A22F00702C0E9CE
:1032B000002401202860D7E75C000020580000208F
:1032C000AC010020A8030020E83200080000002024
:1032D000600000005026000848330008600000200D
:1032E0004807000060260008000000000000000001
:1032F0000000000000A24A040000000000000000DE
:103300000102030406070809000000000000000095
:10331000000000000000010203040102030406078C
:103320000809020406080000000000000000000078
:10333000000000000000000000000000000000008D
:08334000000000000000000085
:0400000508000101ED
:00000001FF
