:020000040800F2
:100000009008002001010008E520000831150008D3
:10001000E1200008450B0008192D00080000000031
:10002000000000000000000000000000B9270008E8
:1000300055100008000000004926000819010008BA
:100040001B0100081B0100081B0100081B01000820
:100050001B0100081B0100081B0100081B01000810
:100060001B0100081B0100081B0100081B01000800
:100070001B0100081B0100081B0100081B010008F0
:100080001B0100081B0100081B0100081B010008E0
:100090001B0100081B0100081B0100081B010008D0
:1000A0001B0100081B0100081B0100081B010008C0
:1000B0001B0100081B0100081B0100081B010008B0
:1000C0001B0100081B0100081B0100081B010008A0
:1000D0001B0100082D290008B5290008012A000885
:1000E0001B0100081B0100081B010008DFF80CD0F1
:1000F00000F0B8FB00480047513A00089008002083
:100100000648804706480047FEE7FEE7FEE7FEE7B1
:10011000FEE7FEE7FEE7FEE7FEE7FEE7CD28000884
:10012000ED00000840EA01039B0703D009E008C97D
:10013000121F08C0042AFAD203E011F8013B00F8AC
:10014000013B521EF9D27047D2B201E000F8012BF8
:10015000491EFBD270470022F6E710B513460A4647
:1001600004461946FFF7F0FF204610BD421E12F864
:10017000013F002BFBD111F8013B02F8013B002BA2
:10018000F9D1704730B505462A460B4612F8010BE7
:1001900013F8014B08B1A042F8D01CB1002802D0DE
:1001A0006D1CF1E7284630BDCAB2401E10F8011F91
:1001B0008A4202D00029F9D100207047421C10F871
:1001C000011B0029FBD1801A704710B5044600E0DE
:1001D000401C0378002BFBD100E0401C521E04D3CE
:1001E00011F8013B0370002BF7D10021017020466C
:1001F00010BD034611F8012B00F8012B002AF9D19C
:10020000184670472DE9FE4F804681EA0300C00F73
:100210000C46009021F0004123F00045B8EB0200AD
:10022000A94105D24046214690461C460B4602464F
:1002300023F00040104347D0270DC7F30A00C3F353
:100240000A510290401A019040286BDAC3F3130060
:1002500040F4801B0098924620B10023D2EB030AA1
:1002600063EB0B0B01985946C0F14002504600F079
:1002700004FA06460D4650465946019A00F01CFA0B
:1002800010EB08006141002487EA115284EAE77309
:100290001A4340D0009A62B3019A012A4FEA0752EA
:1002A00015DC001B61EB02014FF0004202EA07522D
:1002B000CDE90042001C41F5801132462B4600F08A
:1002C00053FA03B0BDE8F08F40462146F9E7001B22
:1002D00061EB0201001C41F5801300185B412018FE
:1002E000A2F5001747EB030140EAD570B6196D413E
:1002F00011E06D084FEA360645EAC0754FEA07522D
:10030000001B61EB0201001C41F5801149084FEA16
:1003100030000019514132462B4603B0BDE8F04F82
:1003200000F013BA0098012240000023D0EB020233
:1003300063EBE073009821464FEAE074B8EB0000ED
:1003400061EB0401E9E783F000435BE781F00041E2
:1003500058E72DE9FE4F81EA030404F0004421F040
:10036000004100944FF0000B23F0004350EA0104D9
:100370005ED052EA03045BD0C3F30A54C1F30A55BA
:100380002C44A4F2F3340194A0FB0254C1F31301F2
:1003900041F48011C3F3130343F4801301FB0244BF
:1003A00000FB034E840A970A44EA815447EA8357C4
:1003B000A4FB076802958D0A05FB07854FEA932C7D
:1003C00004FB0C542705029D4FEA065847EA1637EE
:1003D000B5EB08056EEB070C870E920E47EA811706
:1003E00042EA8312A7FB0201B6EB0B0164EB0004A7
:1003F0002B0D43EA0C335E1844EB1C50DA46514691
:10040000E7FB0201C5F313044FEA0B3343EA14532D
:100410004FEA0432019C43EA0603A4F10C0402945F
:10042000009CCDE900B400F09FF903B0BDE8F08F67
:1004300000200146F9E72DE9F04D81EA030404F0BC
:10044000004B21F0004514464FF0000A23F0004114
:1004500050EA050220D054EA01021DD0C5F30A5724
:100460000246C5F31303C1F31300C1F30A5640F467
:10047000801543F48013A7EB0608101BD64608F23C
:10048000FD3873EB050002D308F1010801E0921872
:100490005B41B8F1000F03DA00200146BDE8F08DA2
:1004A00000204FF48011064684460EE0171B73EBC4
:1004B000050705D3121B63EB050306434CEA010C49
:1004C00049084FEA300092185B4150EA0107EDD12C
:1004D00052EA030012D082EA040083EA05010843CD
:1004E00005D0101BAB4106D20122002306E00022FA
:1004F0004FF0004302E06FF0010253101AEB0600C8
:100500004CEB085110EB0A0041EB0B01BDE8F04D3C
:1005100000F01BB90EB5C10F80EAE0700844CA07AD
:10052000002140F233438DE80E000A460B4600F0EE
:100530001BF903B000BD0EB540F23341029100211A
:10054000CDE900110A460B4600F00EF903B000BDDC
:1005500070B5C1F30A5201F000450024C1F3130144
:1005600040F2FF3341F480119A4201DA002070BD5D
:1005700040F233439A42A2F2334203DC524200F08B
:100580008BF800E090402C43F1D0404270BD00F069
:10059000004230F000400AD0C10D01F56071C0F397
:1005A000160042EA0151C20840071143704700207B
:1005B0000146704701F0004330B421F0004150EA99
:1005C000010206D00A0DA2F56072C1F31301002AE0
:1005D00002DC30BC00207047440F44EAC104C10073
:1005E000E01830BC00EBC25000F078B830B50B46D4
:1005F000014600202022012409E021FA02F59D4253
:1006000005D303FA02F5491B04FA02F52844151E26
:10061000A2F10102F1DC30BD2DE9F05F05460020BA
:1006200092469B4688460646814640241BE0284663
:1006300041464746224600F02FF853465A46C01A14
:10064000914110D311461846224600F016F82D1A93
:1006500067EB01084F4622460120002100F00DF80B
:1006600017EB00094E41201EA4F10104DFDC4846CF
:1006700031462A464346BDE8F09F202A04DB203A53
:1006800000FA02F1002070479140C2F1200320FAE5
:1006900003F3194390407047202A04DB203A21FAE3
:1006A00002F00021704721FA02F3D040C2F120028B
:1006B0009140084319467047202A06DBCB17203AA1
:1006C00041FA02F043EAE07306E041FA02F3D04057
:1006D000C2F1200291400843194670470029A8BF83
:1006E0007047401C490008BF20F00100704710B45B
:1006F000B0FA80FC00FA0CF050EA010404BF10BC10
:10070000704749B1CCF1200421FA04F411FA0CF13C
:1007100018BF012121430843A3EB0C01CB1D4FEA75
:1007200000614FEA102042BF002010BC704700EB70
:10073000C35010440029A4BF10BC7047401C49009E
:1007400008BF20F0010010BC704710B5141E73F1F3
:10075000000408DA401C41F1000192185B411A4381
:1007600001D120F0010010BD2DE9F04D92469B46CD
:1007700011B1B1FA81F202E0B0FA80F22032904673
:10078000FFF77BFF04460F4640EA0A0041EA0B01EF
:1007900053465A46084313D0114653EA010019D074
:1007A000C8F140025046FFF777FF05460E46504617
:1007B00059464246FFF761FF084305D0012004E097
:1007C00020463946BDE8F08D0020054346EAE07634
:1007D0002C4337430A986305E40AA0EB0800002283
:1007E000FD0A44EA47540A3002D500200146E9E7F1
:1007F000010510196941DDE9084500196941BDE8A5
:10080000F04DA2E7C1F30A52C1F3130140F2FF33E6
:1008100041F480119A4202DA00200146704740F20A
:1008200033439A42A2F2334202DC5242FFF734BF12
:10083000FFF723BF30B5041E71F1000404DB4FF055
:100840000044404264EB0101141E73F1000405DB17
:100850001C464FF00043524263EB0403994208BF29
:10086000904230BD064C074D06E0E06840F00103C1
:1008700094E8070098471034AC42F6D3FFF73AFCEF
:100880002C3D00084C3D000821B1826842F0010275
:10089000826003E0826822F001028260704721B129
:1008A000826842F48072826003E0826822F480727F
:1008B00082607047014600208A6802F004020AB193
:1008C000012000E000207047014600208A6802F005
:1008D00008020AB1012000E00020704730B502464E
:1008E0000020002350680F4C20400D790C6844EA2A
:1008F00005242043506090680B4C2040D1E90254FD
:100900002C434D7944EA450420439060D06A20F49A
:1009100070000C7C641EE4B2234340EA0350D062B2
:1009200030BD0000FFFEF0FFFDF7F1FFF0B504461B
:100930000D4600200021092D11DDE068A5F10A0611
:1009400006EB4607072606FA07F18843A5F10A06D3
:1009500006EB460603FA06F10843E0600CE0206966
:1009600005EB4507072606FA07F1884305EB450620
:1009700003FA06F108432061072A0FDA606B561E5E
:1009800006EB86071F2606FA07F18843561E06EB7C
:10099000860605FA06F10843606322E00D2A0FDAA5
:1009A000206BD61F06EB86071F2606FA07F1884341
:1009B000D61F06EB860605FA06F10843206310E011
:1009C000E06AA2F10D0606EB86071F2606FA07F17C
:1009D0008843A2F10D0606EB860605FA06F10843E8
:1009E000E062F0BD816841F008018160704721B18B
:1009F000826842F4A002826003E0826822F4A002CE
:100A000082607047816841F0040181607047000096
:100A100008B50121102001F055FE0120ADF80000BD
:100A20000220ADF8000000208DF80300694602485E
:100A300000F090FC08BD00000008014010B5FFF771
:100A4000E7FF00F001F810BD00B591B001210846A4
:100A500001F008FE0121480201F034FE364800F0A2
:100A6000B9F93648069036480790002008900220D1
:100A7000099000200A9080200B9040000C9080008C
:100A80000D9020200E9000020F900020109006A9DB
:100A9000294800F045FA0121274800F08FF900208D
:100AA000019001208DF808008DF809004FF46020B6
:100AB00003900020049002208DF8140001A91F4823
:100AC0004C38FFF70BFF4FF4404001F0BFFD05230A
:100AD0000122002119484C38FFF728FF0523022284
:100AE000012116484C38FFF721FF012113484C38EB
:100AF000FFF7D5FE012111484C38FFF7C5FE0F481E
:100B00004C38FFF76FFF00BF0C484C38FFF7DCFE96
:100B10000028F9D109484C38FFF774FF00BF074897
:100B20004C38FFF7C7FE0028F9D1012103484C38A3
:100B3000FFF75DFF11B000BD080002404C240140EA
:100B40005C00002000BFFEE710B5002400F02AF88A
:100B500004E0601CC4B2012002F0C6FE4FF48041E4
:100B60000F4800F082FC08B1642CF2DB642C01DB3E
:100B7000012010BD002404E0601CC4B2012002F07A
:100B8000B3FE4FF48041064800F06FFC08B9642CB6
:100B9000F2DB642C01DB0120EBE70020E9E7000039
:100BA000000C014008B50121082001F08BFD4FF435
:100BB0008040ADF8000003208DF8020048208DF839
:100BC00003006946014800F0C5FB08BD000C014068
:100BD00010B500F00DF84FF48041044800F050FCCF
:100BE00000F0D6F8FFF7B0FF10BD0000000C014088
:100BF00008B50121082001F065FD4FF48040ADF8F3
:100C0000000010208DF8030003208DF802006946D3
:100C1000014800F09FFB08BD000C014008B5012110
:100C2000082001F04FFD4FF48040ADF80000102087
:100C30008DF8030003208DF802006946014800F09A
:100C400089FB08BD000C014010B5002404E0601CC5
:100C5000C4B2012002F048FE4FF48041104800F079
:100C600004FC08B1642CF2DB002404E0601CC4B274
:100C7000012002F039FE4FF48041094800F0F5FBF5
:100C800008B9642CF2DB282002F02EFE4FF48041DC
:100C9000034800F0EAFB08B1012010BD0020FCE78A
:100CA000000C014070B50024002506E06006040E2B
:100CB000FFF7CAFF0443681CC5B2082DF6DB2046C7
:100CC00070BD00002DE9F04786B081468A4600F0ED
:100CD0005FF8FFF739FF00284FD1002405E0FFF748
:100CE000E1FF04A90855601CC4B2052CF7DB9DF890
:100CF00010009DF8111008449DF8121008449DF84A
:100D0000131008449DF8141088423AD19DF8110040
:100D1000FFF711FC1C4A1D4BCDE90001FFF719FB41
:100D200005460E469DF81000FFF705FC2A4633469F
:100D3000CDE90201FFF766FA0746FFF73BFCCAF868
:100D400000009DF81300FFF7F6FB0F4A0F4BCDE9AB
:100D50000001FFF7FEFA05460E469DF81200FFF768
:100D6000EAFB07462A463346FFF74CFACDE9020173
:100D7000FFF720FCC9F8000003E0012006B0BDE841
:100D8000F0870020FAE700009A9999999999B93F5C
:100D900010B5FFF743FF4FF48041074800F06EFBAA
:100DA000142002F07BFD4FF48041034800F068FB03
:100DB0001E2002F099FD10BD000C014021B1026817
:100DC00042F00102026004E002684FF6FE731A402E
:100DD0000260704701684FF6FE7211400160002109
:100DE000016041608160C1604B49884208D14A4935
:100DF0000839496841F00F01474A083A51608AE0D2
:100E000045491431884208D143490839496841F0BD
:100E1000F001414A083A51607DE03F49283188425B
:100E200008D13D490839496841F470613A4A083AA5
:100E3000516070E038493C31884208D13649083960
:100E4000496841F47041344A083A516063E03249DC
:100E50005031884208D130490839496841F470213D
:100E60002D4A083A516056E02B496431884208D136
:100E700029490839496841F47001274A083A516004
:100E800049E025497831884208D123490839496821
:100E900041F07061204A083A51603CE01F498842A5
:100EA00006D1011F096841F00F01021F116032E0F5
:100EB0001A491431884208D11849091F096841F0BC
:100EC000F001164A121F116025E0144928318842AA
:100ED00008D11249091F096841F470610F4A121FB5
:100EE000116018E00D493C31884208D10B49091FB7
:100EF000096841F47041094A121F11600BE007496B
:100F00005031884207D10549091F096841F4702111
:100F1000024A121F11607047080002400804024094
:100F200010B50022026847F6F0739A430C6A8B688A
:100F300023430C6923434C6923438C692343CC69C5
:100F400023434C6A23438C6A23431A430260CB68D1
:100F500043600B6883604B68C36010BD10B500240C
:100F600000F02AF804E0601CC4B2012002F0BCFCCE
:100F70004FF400510F4800F078FA08B1C82CF2DBAA
:100F8000C82C01DB012010BD002404E0601CC4B2A9
:100F9000012002F0A9FC4FF40051064800F065FA68
:100FA00008B9F02CF2DBF02C01DB0120EBE700208C
:100FB000E9E70000000C014008B54FF40050ADF81F
:100FC000000004208DF803006946024800F0C2F9D1
:100FD00008BD0000000C014008B54FF40050ADF80A
:100FE000000003208DF8020010208DF803006946F0
:100FF000014800F0AFF908BD000C014010B5012117
:10100000082001F05FFBFFF7E7FF4FF400510448B1
:1010100000F036FA00F006F8FFF7A0FF10BD000060
:10102000000C014010B5FFF7D7FF4FF400510848FE
:1010300000F024FA40F2EE2002F056FC4FF400518A
:10104000034800F01DFA0F2002F04EFC10BD000016
:10105000000C01407047000010B580210348FFF7E5
:101060007AF800200249088010BD000044010020E9
:101070004200002070B50546002400BF00F050F982
:1010800080B90DA10E48FFF77DF8044654B13A210E
:101090002046FFF789F8044614B1641C204670BD51
:1010A0000020FCE7052002F0F9FB281EA5F1010154
:1010B0008DB2E3D100BFF2E74950442C000000009C
:1010C0004401002008B50121082001F0FBFA10209E
:1010D0008DF803000002ADF8000003208DF8020037
:1010E0006946334800F036F900224FF48051304809
:1010F00000F0C8F9FA2002F0D1FB012211032C48BC
:1011000000F0C0F94FF4FA7002F0C8FBFFF7A4FF3B
:1011100028A001F0C1FE03E04FF4FA7002F0BEFB1C
:10112000C82226A123A000F0B1F80028F4D124A001
:1011300001F0B2FE03E04FF4FA7002F0AFFBC822F8
:101140001EA122A000F0A2F80028F4D123A001F0F3
:10115000A3FE03E04FF4FA7002F0A0FBC82217A12F
:1011600021A000F093F80028F4D123A001F094FE10
:1011700003E04FF4FA7002F091FBFA2220A122A0C2
:1011800000F084F80028F4D12BA001F085FE03E0E4
:101190004FF4FA7002F082FBC8222AA12BA000F0C3
:1011A00075F80028F4D134A001F076FE08BD0000E7
:1011B000000C014041540D0A000000004F4B00009C
:1011C00043574D4F44450D0A0000000041542B4346
:1011D000574D4F44453D310D0A00000041542B430B
:1011E00057444843500D0A0041542B435744484349
:1011F000503D312C310D0A0043574A41500D0A0031
:10120000474F54204950000041542B43574A415006
:101210003D224368696E614E65742D322E34472D30
:1012200039333332222C22313233343536373839A0
:1012300030220D0A000000004349505354415254DB
:101240000D0A0000434F4E4E4543540041542B437A
:10125000495053544152543D22544350222C223180
:1012600038332E3233302E34302E3339222C363070
:1012700030320D0A00000000455350383236362017
:10128000496E6974204F4B0D0A0000002DE9F041B2
:1012900005460E4614462846FEF790FF87B23946AB
:1012A000284601F0E1FD0FE000F03AF848B9314678
:1012B0000948FEF767FF20B1FFF7CEFE0020BDE82A
:1012C000F0810A2002F0EAFA201EA4F101018CB29A
:1012D000EAD10120F3E700004401002030B589B0D5
:1012E00005460C46FFF7B8FE224608A101A801F00A
:1012F000E3FDC82209A101A8FFF7C8FF18B92146DC
:10130000284601F0B1FD09B030BD000041542B4327
:10131000495053454E443D25640D0A003E000000EF
:101320000A48008808B90120704708480088084921
:101330000988884203D1002004490880F4E7034863
:101340000088034908800120EEE7000042000020E9
:10135000440000202DE9F04102460025002600202F
:1013600000230024002791F803C00CF00F0591F82A
:1013700003C00CF0100CBCF1000F03D091F802C0B8
:101380004CEA050591F800C0BCF1000F31D014689B
:1013900000202BE04FF0010C0CFA00F3B1F800C074
:1013A0000CEA03069E4220D183004FF00F0C0CFA8A
:1013B00003F7BC4305FA03FC4CEA040491F803C0AC
:1013C000BCF1280F06D14FF0010C0CFA00FCC2F85A
:1013D00014C00AE091F803C0BCF1480F05D14FF0EA
:1013E000010C0CFA00FCC2F810C0401C0828D1D334
:1013F0001460B1F800C0BCF1FF0F34DD5468002068
:101400002EE000F1080C4FF0010808FA0CF3B1F8D7
:1014100000C00CEA03069E4221D183004FF00F0C5E
:101420000CFA03F7BC4305FA03FC4CEA040491F8F8
:1014300003C0BCF1280F05D100F1080C08FA0CF824
:10144000C2F8148091F803C0BCF1480F07D100F135
:10145000080C4FF0010808FA0CF8C2F81080401C84
:101460000828CED35460BDE8F0810246002093687E
:101470000B400BB1012000E0002070474161704734
:10148000016170470AB1016100E0416170470000ED
:101490002DE9F84F0721B42000F074F882460AF0D5
:1014A000FF0B4FEA2A200090009901EB0B20FFF779
:1014B00031F80646074A084BFEF74BFF04464FF04B
:1014C0006632064BFEF73FFF8046FFF773F8BDE834
:1014D000F88F00007B14AE47E17A943F66127140AA
:1014E0002DE9F84F0621B42000F04CF882460AF0AE
:1014F000FF0B4FEA2A200090009901EB0B20FFF729
:1015000009F80646074A084BFEF723FF04464FF04A
:101510006632064BFEF717FF8046FFF74BF8BDE833
:10152000F88F00007B14AE47E17A943F6612714059
:1015300000BFFEE710B54FF4A06000F01FFE02F000
:101540008BF94FF4E13001F0E9FB4FF4E13001F0A9
:1015500035FC00F0F1F9FFF73BFBFFF74FFD00F022
:10156000D7F9FFF76BFA01F0A5FA10BD21B1028897
:1015700042F48062028004E002884FF6FF331A4092
:10158000028070472DE9F04105460F460026B0461F
:10159000002400BF4FF40031364800F015F9002850
:1015A000F8D10121334800F0F7F800BF3249314843
:1015B00000F066F80028F9D0002229462D4800F0F6
:1015C0009BF900BF2D492B4800F05AF80028F9D0AC
:1015D0003946284800F099F903E00121254800F038
:1015E000DBF82649891C234800F04AF80028F4D08B
:1015F00000BF21491F4800F043F80028F9D001221C
:1016000029461C4800F078F900BF1B49491C1948BD
:1016100000F036F80028F8D000BF17493F311548D0
:1016200000F02EF80028F8D0124800F061F90646C4
:1016300000211048FFF79AFF01210E4800F0B8F88A
:1016400000BF0D493F310B4800F01AF80028F8D0D0
:10165000084800F04DF9804601210648FFF786FF53
:1016600034464FF6FF7000EA042444EA080420469A
:10167000BDE8F08100540040010003008200070033
:1016800070B502460024002500230020958A138BA4
:101690001B0445EA030626F07F4404EA01068E4255
:1016A00001D1012000E0002070BD21B1028842F08C
:1016B0000102028004E002884FF6FE731A400280A5
:1016C0007047000010B504460B48844209D101213F
:1016D000480500F0E7FF00214FF4001000F0E2FFA2
:1016E00008E00121880500F0DDFF00214FF48000B3
:1016F00000F0D8FF10BD00000054004000B585B0D8
:101700000121480500F0BEFF0121082000F0DAFFAA
:101710004020ADF8100003208DF812001C208DF839
:10172000130004A91A48FFF715FE8020ADF8100039
:1017300003208DF812001C208DF8130004A9144812
:10174000FFF708FE1348FFF7BDFF0020ADF80400C7
:101750004BF6FF70ADF806000A20ADF808004FF414
:101760008060ADF80A000001ADF80C0049F6404079
:1017700000906946074800F045F801210548FFF749
:10178000F5FE01210348FFF790FF05B000BD000002
:10179000000C01400054004021B1028842F48072E4
:1017A000028004E002884FF6FF631A40028070470F
:1017B00021B1028842F40072028004E002884FF6F0
:1017C000FF531A40028070470CB5024600200023E8
:1017D0000193009300920B0F019321F07F41019B35
:1017E0001BB1009B1433009303E0090C009B1833DA
:1017F0000093009B1B680B400BB1012000E0002010
:101800000CBD00002DE9F04385B004460D460026CE
:10181000B1460427DFF8CC80A6884FF6C07006409A
:10182000684600F05FFFDDF808802F48B8FBF0F055
:101830001FFA80F946EA0906A68020884FF6FE7155
:101840000840208000262949286888420CD828684A
:101850004000B8FBF0F087B2042F00DA04273E43C3
:1018600009F10100208427E0E8884BF6FF718842E7
:1018700006D1286800EB4000B8FBF0F087B209E021
:10188000286800EBC00101EB0010B8FBF0F087B254
:1018900047F48047C7F30B0008B947F0010747F446
:1018A000004006434FF4967009FB00F04FF47A7144
:1018B00090FBF1F0401C2084A683208840F00100BA
:1018C000208026884FF6F5300640A88869890843AD
:1018D00006432680A88929890843208105B0BDE8F0
:1018E000F083000000127A0040420F00A086010041
:1018F0000146088AC0B2704712B141F0010102E00E
:101900004FF6FE7319400182704701827047000054
:1019100008B50121082000F0D5FE4FF44070ADF865
:10192000000048208DF8030069460248FFF712FDC9
:1019300008BD0000000C014008B50121182000F08E
:10194000C1FE4FF40050ADF8000010208DF80300E8
:1019500003208DF8020069460948FFF7FBFC2020B0
:10196000ADF8000010208DF8030003208DF8020070
:1019700069460448FFF7EEFC01200349086008BDF2
:1019800000100140000C0140B401224210B5044691
:10199000207B012802D1206801F0DAFF00202060BE
:1019A0006060A060207310BD0246002301230DE09B
:1019B00002F07F000870D2092AB1087840F0800058
:1019C0000870491C01E0184670475B1C042BEFDDD2
:1019D0004FF0FF30F8E770B504460E46002520684A
:1019E00098B901202073304602F096F820602068F4
:1019F000E0B100206060A66003E000202168485547
:101A00006D1CA068A842F8D810E00220207303E003
:101A10000020216848556D1CA068A842F8D8002015
:101A20006060A068B04201D20020206070BD00005C
:101A30002DE9FF5F07460D4690463846FEF7BEFB90
:101A400086B22846FEF7BAFB1FFA80FA4FF000096B
:101A5000B01D02F061F804461CB9012004B0BDE8D5
:101A6000F09FB11D2046FEF776FB12A001682160B1
:101A70008088A080324639462046FEF7A6FB2846DD
:101A8000FEF79CFB83460120002100915B462A461D
:101A9000CDE90208019121460A2000F05FF910B952
:101AA0004FF0000901E04FF00109204601F050FF1E
:101AB0004846D3E724637273702F00002DE9FF4F6F
:101AC00083B082468B469146159C002500200290EB
:101AD0000F2701904846FEF771FB0FFA80F8B9F125
:101AE000000F03D1012007B0BDE8F08F08F102001C
:101AF000384487B2109808B145F00205129878B1C1
:101B000045F004051298FEF759FBC0B202901398F5
:101B1000FEF754FB01460298001D0844384487B282
:101B2000119820B1012804D0022808D104E000BF98
:101B300007E045F00C0504E045F0140501E0022043
:101B4000D1E700BF149808B145F02405BAF1000FA1
:101B500002D0BBF1000F01D10320C4E745F0C0055E
:101B60005046FEF72BFB06465846FEF727FB30444F
:101B7000001D384487B239462046FFF72CFF206805
:101B800008B90420AFE739462068FEF7E4FA1021CF
:101B90006268501C606020688154D4E90023D11829
:101BA000781FFFF701FF00B201900198002804DAC6
:101BB0002046FFF7EBFE052095E761680198084491
:101BC000606000216268501C6060206881540421BC
:101BD0006268501C6060206881544D216268501C0E
:101BE00060602068815451216268501C60602068E8
:101BF000815454216268501C60602068815462687E
:101C0000501C60602068815404216268501C606030
:101C1000206881546168481C6060206845540698BB
:101C2000010A6268501C6060206881540698C1B245
:101C30006268501C606020688154C8F307216268A4
:101C4000501C6060206881546268501C606020688D
:101C500000F80280D4E90012881842464946FEF78F
:101C6000B4FA60684044606005F00400B8B3002630
:101C7000139808B938A013901298FEF79FFA86B20D
:101C8000310A6268501C6060206881546268501C90
:101C9000606020688654D4E9001288183246129990
:101CA000FEF793FA6068304460601398FEF786FA96
:101CB00086B2310A6268501C606020688154626894
:101CC000501C606020688654D4E90012881832469F
:101CD0001399FEF77AFA60683044606000BF05F03F
:101CE0008000C8B15046FEF769FA86B2310A6268D0
:101CF000501C6060206881546268501C60602068DD
:101D00008654D4E90012881832465146FEF75DFA2F
:101D100060683044606000BF05F04000C8B15846BC
:101D2000FEF74CFA86B2310A6268501C6060206887
:101D300081546268501C606020688654D4E90012A7
:101D4000881832465946FEF740FA606830446060B1
:101D500000BF0020C7E60000000000002DE9FF4F93
:101D600083B0834690469946139C002600250020A8
:101D7000029001900027BBF1000F03D1012007B0B2
:101D8000BDE8F08F00250AE00498405D232803D0C9
:101D90000498405D2B2801D10220F0E76D1C0498C7
:101DA000405D0028F0D147F03007119808B147F0A6
:101DB000010705EB0900861C109820B1012804D00A
:101DC00002280AD105E000BF09E047F00207B61C6F
:101DD00005E047F00407B61C01E00320CFE700BF91
:101DE00098F80000022822D14FF0000A00BF5046A8
:101DF0000AF1010A18F800007D28F8D1AAF1030AB7
:101E00000AF1070002900298A9EB000AF01CA0EB6F
:101E10000A012046FFF7DFFD206808B90420AEE77D
:101E2000F21CA2EB0A012068FEF795F90BE0F11C09
:101E30002046FFF7D0FD206808B904209FE7F11C79
:101E40002068FEF788F96168481C60602068475484
:101E5000D4E9000281183046FFF7A6FD01900198F1
:101E6000002804DA2046FFF791FD052087E7616826
:101E7000019808446060C5F307216268501C6060E7
:101E8000206881546268501C606020688554D4E9E1
:101E9000001288182A460499FEF797F960682844CA
:101EA0006060109860B14FEA1B216268501C60604E
:101EB000206881546268501C6060206800F802B09D
:101EC000B8F1000F19D098F8000002280BD1D4E91E
:101ED000001288184146029AFEF724F961680298B8
:101EE0000844606009E0D4E9001288184A46414677
:101EF000FEF718F960684844606000203FE7000082
:101F00002DE9FF4107460D4690461E460A9C0120DA
:101F10000021CDE90001EB1C0A460FA1CDE9020426
:101F20000A20FFF71BFF88B96168481C60602068C1
:101F30004654C5F307216268501C606020688154D4
:101F40006268501C60602068855403E0012004B082
:101F5000BDE8F0810020FAE724647000F0B5044683
:101F60000D462646012300201060002114E0775C16
:101F700007F07F07106807FB03001060705C00F03B
:101F8000800008B9481CF0BDDB01B3F5001F02D387
:101F90006FF00100F7E7491CA942E8DB4FF0FF3082
:101FA000F1E72DE9F84380460C4615461E462F21E1
:101FB00008F10600FEF7F8F807460020009017B970
:101FC0000120BDE8F8837F1C6A46042108F1010066
:101FD000FFF7C4FF252001F09FFD2060206808B9AD
:101FE0000220EEE725212068FEF7B5F824223946C5
:101FF0002068FEF797F8243700982C383080318815
:10200000481C01F089FD2860286820B9206801F08B
:102010009FFC0320D5E73288511C2868FEF79BF807
:10202000328839462868FEF77DF80020C9E7014666
:102030004878022801D001207047887810B188784C
:10204000012801D1C878F7E7FF20F5E70146487875
:10205000022801D001207047887820B9C8780A2862
:1020600001D10020F7E70120F5E70000F8B50446AC
:10207000FF2720780511012D01DB0E2D01DD3846EB
:10208000F8BD032D24D1002000906A460421601C75
:10209000FFF764FF2044461C0098022803D32078F1
:1020A00000F0010008B1FF20EAE77078317840EADB
:1020B0000120801C0099884201D9FF20E0E706A199
:1020C000B01CFEF75FF808B10F2700E0032700E01F
:1020D0002F463846D4E70000246372657100000083
:1020E00000BFFEE7704708B54FF4A06000F046F867
:1020F00027208DF8000001208DF801008DF80200E6
:102100008DF80300684600F001F808BD70B50021A5
:1021100000230F22C47804B3154C246804F4E0644F
:10212000C4F5E064210AC1F10403CA40447804FA0A
:1021300003F184781440214309010E4C0678A1551F
:10214000047804F01F050124AC4005786D11AD0042
:1021500005F1E025C5F8004109E0047804F01F0509
:102160000124AC40044D0678761145F8264070BD38
:102170000CED00E000E400E080E100E002490143F2
:10218000024A1160704700000000FA050CED00E003
:1021900010B5FEF797FF03E04FF4FA7001F07EFBF5
:1021A00000F008F80028F7D10149086010BD0000D0
:1021B000B401224230B58BB00020079008900990FE
:1021C0000A9001252BA32EA22FA131A000F064FEBE
:1021D00007A8002102910391CDE9041000912B0280
:1021E00024A2019126A128A0FFF768FC00283BD17A
:1021F000089A91B20798FFF771F8FA20FEF73AFFB4
:102200000446002C2CD02046FFF730FF022827D1AF
:102210002046FFF70CFF06281DD2DFE800F0030878
:102220000C10141826A000F037FE002517E029A096
:1022300000F032FE13E02EA000F02EFE0FE035A0DD
:1022400000F02AFE0BE03BA000F026FE07E042A0D3
:1022500000F022FE03E04BA000F01EFE00BF00BF16
:1022600007A8FFF793FB02E04DA000F015FE2846FB
:102270000BB030BD363736333132333333000000E4
:1022800077776A3200000000343031313335000096
:102290004F6E654E65745F4465764C696E6B0D0AD2
:1022A00050524F49443A2025732C09415549463A2A
:1022B0002025732C0944455649443A25730D0A00DC
:1022C000546970733A09C1ACBDD3B3C9B9A60D0A3C
:1022D000000000005741524E3A09C1ACBDD3CAA715
:1022E000B0DCA3BAD0ADD2E9B4EDCEF30D0A000054
:1022F0005741524E3A09C1ACBDD3CAA7B0DCA3BA0C
:10230000B7C7B7A8B5C4636C69656E7469640D0A14
:10231000000000005741524E3A09C1ACBDD3CAA7D4
:10232000B0DCA3BAB7FECEF1C6F7CAA7B0DC0D0A7F
:10233000000000005741524E3A09C1ACBDD3CAA7B4
:10234000B0DCA3BAD3C3BBA7C3FBBBF2C3DCC2EBF5
:10235000B4EDCEF30D0A00005741524E3A09C1AC1C
:10236000BDD3CAA7B0DCA3BAB7C7B7A8C1B4BDD3A1
:1023700028B1C8C8E7746F6B656EB7C7B7A8290DD9
:102380000A0000004552523A09C1ACBDD3CAA7B0F9
:10239000DCA3BACEB4D6AAB4EDCEF30D0A00000089
:1023A0005741524E3A094D5154545F5061636B6529
:1023B00074436F6E6E656374204661696C65640D6D
:1023C0000A00000070B588B0044620216846FDF779
:1023D000C2FE1FA12046FDF70CFF20216846FDF735
:1023E000BAFE1C480068FEF7D2F805462A460B469E
:1023F00019A1684600F060FD69462046FDF7B6FE6B
:1024000020216846FDF7A7FE18480068FEF7BFF8D0
:1024100005462A460B4616A1684600F04DFD694662
:102420002046FDF7A3FE20216846FDF794FE1448E0
:1024300014A10268684600F03FFD69462046FDF79A
:1024400095FE2046FDF7BAFEC0B208B070BD000090
:102450002C3B00000400002074656D70657261748F
:10246000757265312C252E31663B00000C00002072
:1024700068756D6964697479312C252E30663B006E
:102480004C00002076616C7565322C25643B0000A1
:102490002DE9F04188B00646002004900590069092
:1024A00007900390029001900024002500278046A9
:1024B0003046FFF7DBFD0446042C22D00F2C26D13A
:1024C00001AB03AA02A93046FFF76BFD0546BDB973
:1024D000BDF8043022A0DDE9021200F0DDFC04AA00
:1024E000DDE90201FFF7A4FA50B926A000F0D4FC00
:1024F000059A91B20498FEF7F1FE04A8FFF746FA98
:1025000008E03046FFF7A2FD00B903E000BF4FF03E
:10251000FF3500BF00BFFEF79FFD681C10B908B073
:10252000BDE8F0811DA10398FDF72CFE18B1002035
:102530001C49086007E01CA10398FDF723FE10B1B9
:102540000120184908600F2C01D0032C05D10298F6
:1025500001F0FEF9039801F0FBF900BFDFE700008E
:10256000636D6469643A2025732C207265713A208A
:1025700025732C207265715F6C656E3A2025640DA1
:102580000A000000546970733A0953656E64204371
:102590006D64526573700D0A000000004B45593A96
:1025A000300000004C0000204B45593A310000003B
:1025B00030B5A5B0002021902290239024900024D3
:1025C0000025802101A8FDF7C6FD01A8FFF7FAFE4E
:1025D0000446002C20D021A805230022214600908B
:1025E0000EA0FFF78DFCA0B908E001A8415D229A7A
:1025F000501C229021988154681C05B2A542F4DB3E
:10260000229A91B22198FEF769FE21A8FFF7BEF940
:1026100002E005A000F040FC25B030BD363736336F
:1026200031323333330000005741524E3A094544AA
:10263000505F4E6577427566666572204661696CCB
:1026400065640D0A0000000070470000014600208C
:10265000034A506820F4404008435060704700002F
:102660000010024029B1064A52690243044B5A61E4
:1026700004E0034A52698243014B5A6170470000EB
:102680000010024029B1064AD2690243044BDA61C4
:1026900004E0034AD2698243014BDA6170470000CB
:1026A0000010024029B1064A12690243044B1A6124
:1026B00004E0034A12698243014B1A61704700002B
:1026C0000010024029B1064A92690243044B9A6104
:1026D00004E0034A92698243014B9A61704700000B
:1026E0000010024030B500210022002400232D4DAF
:1026F0006D6805F00C0121B1042905D0082923D10A
:1027000005E0294D056022E0274D05601FE0254DBD
:102710006D6805F47012234D6D6805F48034022550
:1027200005EB92421CB9214D554305600BE01D4D50
:102730006D6805F400351DB11C4D5543056002E080
:10274000194D5543056002E0174D056000BF00BFFD
:10275000144D6D6805F0F0010909154D6B5C0568B5
:10276000DD4045600F4D6D6805F4E061090A104DCC
:102770006B5C4568DD4085600A4D6D6805F460510D
:10278000C90A0B4D6B5C4568DD40C560054D6D6841
:1027900005F44041890B074D6B5CC568B5FBF3F54B
:1027A000056130BD0010024000127A0000093D00B2
:1027B0002E0000203E000020704710B500F002F807
:1027C00010BD00000CB50020019000903348006857
:1027D00040F480303149086000BF3048006800F4A0
:1027E000003000900198401C0190009818B90198A1
:1027F000B0F5A06FF1D12948006800F4003010B1A5
:102800000120009001E0002000900098012843D1B1
:102810002348006840F0100021490860084600681D
:1028200020F0030008600846006840F002000860DD
:102830001A48406819494860084640684860084698
:10284000406840F4806048600846406820F47C108E
:1028500048600846406840F4E81048600846006850
:1028600040F08070086000BF0C48006800F0007005
:102870000028F9D00948406820F003000749486063
:102880000846406840F00200486000BF03484068C6
:1028900000F00C000828F9D10CBD00000010024027
:1028A00000200240042808D14FF0E021096941F0DE
:1028B00004014FF0E022116107E04FF0E0210969C7
:1028C00021F004014FF0E0221161704710B5134868
:1028D000006840F00100114908600846406810494E
:1028E00008400E494860084600680E4908400B49F8
:1028F00008600846006820F48020086008464068A8
:1029000020F4FE0048604FF41F008860FFF755FF79
:102910004FF000600449086010BD00000010024044
:102920000000FFF8FFFFF6FE08ED00E010B540F2F2
:1029300025511D4800F013F910B31B4800F0CAF9E7
:10294000C4B21A48008800F40040C8B9174800888B
:1029500000F4804060B10A2C03D0002013490880A5
:1029600020E01248008840F400401049088019E037
:102970000D2C06D10D48008840F480400B4908809A
:1029800010E00A480088C0F30D0009490C540748BC
:102990000088401C0549088008460088C72801DDDA
:1029A0000020088010BD0000003801402C000020ED
:1029B0007C00002010B540F225510E4800F0CFF801
:1029C000B0B10D480088802802D300200A49088051
:1029D0000848001D0088C1B2074802880088401CD2
:1029E000054B1880054881542021024800F04CF81E
:1029F00010BD0000004400404200002044010020BF
:102A000010B540F225511D4800F0A9F810B31B483D
:102A100000F060F9C4B21A48008800F40040C8B958
:102A20001748008800F4804060B1702C03D000206B
:102A30001349088020E01248008840F40040104903
:102A4000088019E02A2C06D10D48008840F4804007
:102A50000B49088010E00A480088C0F30D000949BE
:102A60000C5407480088401C054908800846008827
:102A7000C72801DD0020088010BD0000004800408C
:102A800070000020C401002001F40072B2F5007F44
:102A900000D100BFCA430280704721B1828942F44D
:102AA0000052828104E082894DF6FF731A408281D0
:102AB0007047000000B585B001210820FFF702FE35
:102AC00001218804FFF7DEFD4FF48060ADF81000AF
:102AD00018208DF8130003208DF8120004A9174860
:102AE000FEF738FC4FF40060ADF8100004208DF8BC
:102AF000130004A91148FEF72DFC4FF4E1300090BB
:102B00000020ADF80400ADF80600ADF80800ADF8FF
:102B10000C000C20ADF80A006946094800F06EF878
:102B2000FFF7E1FA012240F22551054800F041F893
:102B300001210348FFF7B1FF05B000BD000C0140C3
:102B40000048004002460020B1F5007F00D100BFE0
:102B500013880B400BB1012000E00020704770B5D6
:102B60000246002400230025002040F66A16B142E8
:102B700000D100BFC1F3421501F01F03012606FA80
:102B800003F3012D02D19689334006E0022D02D1D4
:102B9000168A334001E0968A33400C12012606FA69
:102BA00004F41688344013B10CB1012000E0002079
:102BB00070BDF0B50346002400260025002040F635
:102BC0006A17B94200D100BF1846C1F3421401F0A0
:102BD0001F06012707FA06F5012C01D10C3004E08D
:102BE000022C01D1103000E014301AB107682F43D5
:102BF000076002E00768AF430760F0BD2DE9F047CA
:102C000086B005460E460024A24600BFA146002716
:102C1000B08900B100BF2F462C8A4CF6FF700440EB
:102C2000F08804432C82AC894EF6F3100440B0883F
:102C300031890843718908430443AC81AC8A4FF65B
:102C4000FF400440B0890443AC8201A8FFF74AFD6D
:102C50001F48874202D1DDF810A001E0DDF80CA08A
:102C6000A88900F4004040B10AEBCA0000EB0A104A
:102C700031684900B0FBF1F807E00AEBCA0000EB4D
:102C80000A1031688900B0FBF1F86420B8FBF0F05D
:102C900004012009642101FB1089A88900F4004087
:102CA00040B1322000EBC900B0FBF1F000F00700AA
:102CB000044308E0322000EB09106421B0FBF1F07E
:102CC00000F00F0004432C8106B0BDE8F08700003F
:102CD0000038014001468888C0F308007047C1F3FE
:102CE0000802828070472DE9F04107460D461646DE
:102CF000002400BF0CE000BF40213846FFF722FF50
:102D00000128F9D1295D3846FFF7E9FF601CC4B2FC
:102D1000B442F0DBBDE8F08100BFFEE710B586B03D
:102D20000446012144F20400FFF7CCFC4FF400708C
:102D3000ADF8140003208DF8160018208DF8170048
:102D400005A91C48FEF706FB4FF48060ADF814009F
:102D500004208DF8170005A91648FEF7FBFA252078
:102D60008DF8000003208DF801008DF8020001208D
:102D70008DF803006846FFF7C9F901940020ADF80B
:102D80000800ADF80A00ADF80C00ADF810000C20FA
:102D9000ADF80E0001A90848FFF730FF012240F20C
:102DA00025510548FFF705FF01210348FFF775FE90
:102DB00006B010BD000801400038014010B586B0D3
:102DC000044601210420FFF77DFC01214804FFF7A0
:102DD00059FC18208DF817000420ADF814000320CA
:102DE0008DF8160005A91E48FEF7B4FA04208DF8E8
:102DF00017000820ADF8140003208DF8160005A96F
:102E00001748FEF7A7FA01940020ADF810000C2037
:102E1000ADF80E000020ADF80C00ADF80A00ADF8DA
:102E2000080001A90F48FFF7E9FE01210D48FFF74F
:102E300034FE012240F225510A48FFF7BAFE26204F
:102E40008DF8000001208DF8030000208DF80100AE
:102E50008DF802006846FFF759F906B010BD000072
:102E6000000801400044004070B504460D460026AD
:102E70000DE014F8011B0748FFF731FF00BF4021A8
:102E80000448FFF75FFE0028F9D0701C86B2AE42FE
:102E9000EFDB70BD004400400FB4054B10B503A933
:102EA000044A029800F0EEF810BC5DF814FB000034
:102EB00035390008280000200FB4084B10B504A9CC
:102EC00002AA039800F0DEF8044602A9002000F0F0
:102ED00070FC204610BC5DF814FB0000B3370008FE
:102EE00002E008C8121F08C1002AFAD170477047D3
:102EF000002001E001C1121F002AFBD17047000031
:102F00002DE9FF5F82B00021DDE90430020DDDF81C
:102F100040B0034318D044F61050A2F2FF324243AF
:102F20001514119801281FD0A5EB0B00401C5FEA77
:102F3000000A4FF000064E4FDFF83891B046504679
:102F400015D5CAF1000413E0119801244AA3012801
:102F500001D16FEA0B010298119AC0E90031C0E972
:102F6000024206B0BDE8F09FCBF10000DFE7044667
:102F70000021404A491842EB0450CDE9001012E00C
:102F8000E00707D032463B4640464946FDF7E1F9A7
:102F90008046894632463B4610461946FDF7D9F928
:102FA00006460F466410002CEAD1DDE90401DDE994
:102FB0000023BAF1000F06DAFDF7CBF942464B4683
:102FC000FDF7C7F905E0FDF736FA42464B46FDF737
:102FD00032FA04460E460022284BFDF72BFC03D89C
:102FE0004FF0FF30014607E00022254B20463146D6
:102FF000FDF708F9FDF706FC102409E0002C0ADBB8
:103000000A220023FDF708FB039B30321A55641E89
:1030100050EA0102F2D1641C039AC4F11103144472
:10302000119A012A03D0012208430DD10AE0084376
:1030300004D000204FF0110B119072E7A3EB0B05A9
:103040006D1E0DE05B4504DD4FF0000205F101054A
:1030500004E003DA4FF00002A5F10105002AECD0EC
:1030600002981199C0E90231C0E9004579E70000F2
:10307000000014400000F03F300000000000F0436A
:103080000000E03F2DE9FF4F95B09B46894606467C
:1030900000250FE2252877D100242746F84A012190
:1030A000059400E0044316F8013F203B01FA03F0C9
:1030B0001042F7D130782A2811D06FF02F033078E2
:1030C000A0F13002092A16D8059A44F0020402EB56
:1030D000820203EB42021044761C0590EFE759F898
:1030E000042B0592002A03DA504244F40054059060
:1030F00044F00204761C30782E2816D116F8010F01
:1031000044F004042A280DD06FF02F023078A0F18B
:103110003003092B09D807EB870302EB4303C718D9
:10312000761CF3E759F8047B761C30786C280FD0B6
:1031300006DC4C2817D068280DD06A2814D104E08A
:10314000742810D07A280FD10DE044F400140AE05E
:1031500044F4801401E044F440147278824202D1B5
:1031600004F58014761C761C307866280BD013DCAE
:10317000582877D009DC002875D04528F6D0462895
:10318000F4D047281AD19DE118E0632835D064288F
:1031900079D0652812D195E1702873D008DC6728B2
:1031A000F1D069286FD06E280DD06F2806D1B5E018
:1031B00073282CD0752875D0782874D05A46179962
:1031C00090476D1C75E1C4F30250022809D0032812
:1031D0000DD0D9F8001004280DD00D6009F10409B4
:1031E00067E1D9F80010EA17C1E90052F6E7D9F80B
:1031F00000100D80F2E70D70F0E719F8041B8DF850
:10320000001000208DF80100EA46012003E059F883
:1032100004AB4FF0FF3061074FF0000102D40DE026
:1032200008F101018846B9420FDA8045F8DB1AF847
:1032300008100029F4D108E008F101018846814214
:10324000FADB1AF808100029F6D105985B46A0EBC6
:10325000080721463846179A00F094FA284400EBF4
:10326000080507E04DE029E10DE01AF8010B5A4688
:1032700017999047B8F10108F7D25B4621463846C6
:10328000179A13E142E00A220092C4F302524FF06F
:10329000000A022A08D059F804CB032A4FEAEC713D
:1032A0000AD00DE029E02AE009F1070121F0070228
:1032B000F2E802C1914609E00FFA8CFC4FEAEC718A
:1032C000042A03D14FFA8CFC4FEAEC71002907DA8B
:1032D0000A460021DCF1000C61EB02012D2202E024
:1032E000220504D52B228DF80420012203E0E207F9
:1032F00001D02022F7E7904659E00A2102E010228F
:103300000DE010214FF0000A00910BE010224FF069
:10331000000A44F004040827009203E008224FF05A
:10332000000A0092C4F30252022A05D059F804CBD5
:103330000021032A08D009E009F1070121F0070262
:10334000F2E802C1914605E01FFA8CFC042A01D183
:103350000CF0FF0C4FF00008220728D5702806D08B
:10336000009B83F0100353EA0A0305D00EE04022CD
:103370008DF80420012208E05CEA010206D0302228
:103380008DF804208DF8050002229046009B83F002
:10339000080353EA0A030AD15CEA010201D1620779
:1033A00005D530228DF804204FF001087F1E5828E3
:1033B00004D034A003900EA802900DE036A0F9E7E7
:1033C00053466046009AFDF727F984460398825CCD
:1033D0000298401E029002705CEA0100F0D102984F
:1033E00006A9081A00F1200A600702D524F48034E7
:1033F00000E00127574502DDA7EB0A0000E00020AE
:1034000000EB0A01009005984144401A0590E00342
:1034100006D45B462146179A059800F0B3F9054497
:10342000002706E001A85A46C05D179990476D1C19
:103430007F1C4745F6DBE0030CD55B462146179A17
:10344000059800F09FF9054404E030205A4617998A
:1034500090476D1C0099481E00900029F5DC08E09B
:10346000029802995A460078491C02911799904790
:103470006D1CBAF10001AAF1010AF1DC65E100005E
:10348000092801003031323334353637383961623A
:1034900063646566000000003031323334353637FE
:1034A00038394142434445460000000000F058F9D5
:1034B0000544761C307800287FF4ECAD19B028461E
:1034C000BDE8F08F620700D4062709F1070222F059
:1034D000070CFCE80223E14603F000485FEA080C11
:1034E00002D00FF2702C0DE05FEA045C02D50FF2FF
:1034F000682C07E05FEAC47C02D00FF2602C01E088
:10350000AFF2700C4FF0FF3823F00043CDF850C0FD
:1035100065280CD006DC452809D046281DD0472850
:103520003DD13DE0662818D067287ED138E00021E3
:10353000112F01DB112000E0781CCDE9000106A964
:103540000EA8FFF7DDFCDDE90F010E9A03910021C3
:10355000009207F1010A04914DE04FF000400097FE
:10356000CDE9011006A90EA8FFF7CAFCDDE90F029C
:1035700003920E9B11990022DDF80CA00093049297
:1035800011B9791C00EB010AB7EB0A0004D4C0F1B1
:10359000FF3007F1010A0490AAEB0700019044E014
:1035A000012F00DA01270021112F01DD112000E099
:1035B0003846CDE9000106A90EA8FFF7A1FCDDE918
:1035C0000F010E9A0391002104910092BA4621073F
:1035D0000CD40399514500DA8A46BAF1010F05DD92
:1035E000009AAAF10101515C302908D0B84202DAF0
:1035F00010F1040F06DA0121CDE9011015E0AAF15E
:103600000101E9E7002805DC049901440491AAEBD3
:10361000000102E0411C514500DD8A460499401A30
:10362000401C01904FF000400290200704D4019804
:10363000504501DBCDF8048000208DF84F00029842
:103640000DF14F07B0F1004F25D02B200E900298BE
:103650004FF0020800280CDA404202902D200E9014
:1036600007E00A210298FCF7C1FF3031029007F809
:10367000011DB8F10001A8F10108F2DC0298002850
:10368000EFD1791E0E980870307800F0200040F0DD
:10369000450007F8020D12A8C01B00F10708149896
:1036A000007800B1012000EB0A01019801EBE07104
:1036B00005984144401A401E0590E00306D45B463D
:1036C0002146179A059800F05DF805441498007893
:1036D00018B15A46179990476D1CE00324D55B46F4
:1036E0002146179A059800F04DF805441CE004980F
:1036F000002807DBDDE90301884203DD0098405C18
:10370000179901E0179930205A469047049805F11F
:103710000105401C04900198401E019004D12E2008
:103720005A46179990476D1CBAF10001AAF1010A97
:10373000DDDC05E017F8010B5A46179990476D1C20
:10374000B8F10001A8F10108F4DC5B462146179AA4
:103750000598ABE62D0000002B00000020000000C3
:103760002DE9F041044600251E461746880404D47E
:1037700005E039462020B0476D1C641EF9D5284667
:10378000BDE8F0812DE9F041044600251E46904633
:10379000C80301D5302700E02027880404D505E0C0
:1037A00041463846B0476D1C641EF9D52846BDE831
:1037B000F0810A68531C0B601070704710B501202F
:1037C00000F0EEF81F48006808B31E4800680128A2
:1037D00002D002280ED105E01B480068401C1A499F
:1037E000086007E0FDF754FE18490860C820184932
:1037F000086000BF00BF1449086800EBD071491091
:10380000A0EB4101104A116000200E4908600E48EB
:103810000068012802D10F49086002E000200D492C
:1038200008600B480068002804DD09480068401E55
:10383000074908600648006810B90020034908607D
:1038400010BD0000480000204C00002008000020AF
:10385000580000209481214210B56FF00400FFF75A
:1038600021F80A4800680A49B0FBF1F009490870DC
:103870000846007800EB4001C1EBC0104FF6FF7125
:1038800001EAC0000449088010BD000010000020BB
:1038900000127A0024000020260000200146114A70
:1038A00012884A434FF0E0235A6100229A611A4677
:1038B000126942F001021A6100BF4FF0E022106964
:1038C00000F001021AB100F48032002AF5D04FF066
:1038D000E022126922F001024FF0E0231A61002277
:1038E0009A617047260000200146114A12784A4327
:1038F0004FF0E0235A6100229A611A46126942F0A1
:1039000001021A6100BF4FF0E022106900F00102CD
:103910001AB100F48032002AF5D04FF0E02212698B
:1039200022F001024FF0E0231A6100229A617047F1
:103930002400002000BF054A128802F04002002A3D
:10394000F9D0C2B2014B1B1D1A80704700380140EC
:1039500010B5002821D0114B0022001F196803E088
:10396000814203D80A4649680029F9D152B1136847
:10397000841A9C4204D1006818441060104602E08A
:10398000506000E0186039B102680B1A934203D10D
:103990000B681A4402604968416010BD7400002041
:1039A00010B504464FF480712348FDF75EFD28B141
:1039B0004FF400712048FDF758FD18BB1F48006800
:1039C00001281ADD00201D4908604FF480711A4853
:1039D000FDF74BFD18B901201949086008E04FF4C4
:1039E00000711548FDF741FD10B902201449086027
:1039F0001CB9134800681349086010480068401C4F
:103A00000E490860012C15D10D48006890B12102C3
:103A10000948FDF72AFD01280CD141020648FDF7AF
:103A200024FD012806D106480068064908600020E8
:103A30000349086010BD0000000C01405400002044
:103A4000500000204800002010B5FEF7B1FD10BD69
:103A50000025002600BF0024FDF76CFDFEF798FB53
:103A6000FDF74CFEFFF7F0FF4AE000F08BF8052071
:103A700094FBF0F100FB114048B922480088152161
:103A800090FBF1F700221146384600F009F9FFF7E4
:103A900095FE701C86B2012E07D0652E0AD0C92E65
:103AA0000DD0A6F22D1088B90EE017491748FDF782
:103AB00009F90CE0FDF714FD1549086007E0FEF771
:103AC00077FDFDF7C9FA02E0002600E000BF00BF65
:103AD0000020FDF7CFFA054615B12846FEF7D8FCC1
:103AE000641C0F2C03D101200A49086005E01E2C3C
:103AF00003D100200749086000241420FFF7CEFE00
:103B0000B3E700005C0000200C0000200000002053
:103B100004000020B4012242F0B50B30154D20F016
:103B200007010024144A0FE003688B420BD38B4239
:103B300005D95E1A43184768C3E9006700E0436887
:103B4000136002C004E0021D10680028ECD120467A
:103B5000002802D1286808B10020F0BD064A0748B5
:103B60001060074A121A22F00702C0E9002401205F
:103B70002860D7E77800002074000020940200201D
:103B80009004002030B58DB03348006820B1012882
:103B90001CD002284ED133E030480068FCF7F7FC17
:103BA000044622460B462EA16846FFF785F9684673
:103BB000FCF704FBC4B2224669462D48FFF793F890
:103BC00003222C492A48FFF78EF833E02A48006880
:103BD000FCF7DDFC044622460B4628A16846FFF7A9
:103BE0006BF96846FCF7EAFAC4B2224669462048F7
:103BF000FFF779F803221F491D48FFF774F819E011
:103C000022480068FCF7C3FC044622460B4620A16C
:103C10006846FFF751F96846FCF7D0FAC4B222466D
:103C200069461348FFF75FF8032212491048FFF76F
:103C30005AF800BF00BF08480068401C06490860E9
:103C400008460068032190FBF1F201FB12000249D3
:103C500008600DB030BD00006C00002004000020A2
:103C600074342E7478743D22252E316C6622000047
:103C700000480040620000200C00002074352E74C3
:103C800078743D22252E306C66220000080000204A
:103C900074362E7478743D22252E316C6622000015
:103CA0002DE9F04F8DB004468B464FF0000900BF60
:103CB00025E017490968601AFCF72CFC074600222A
:103CC000144BFCF7B8FB0546FCF742FC8246104853
:103CD00000680AFB090210A16846FFF7EDF8684684
:103CE000FCF76CFAC5B22A4669460E48FEF7FBFFA0
:103CF00003220D490B48FEF7F6FF09F10109B9F15E
:103D00000A0FD6DB024804600DB0BDE8F08F00005A
:103D1000680000200000244061646420312C302CB5
:103D20002564000000480040620000204C3D00086F
:103D3000000000207C000000E02E0008C83D0008C4
:103D40007C00002014080000F02E00080000000095
:103D500000000000000000000000000000A24A0473
:103D6000000000000000000001020304060708092B
:103D70000000000000000000000000000000010240
:103D800003040102030406070809020406080000F0
:103D90000000000000000000000000000000000023
:103DA0000000000000000000000000000000FFFF15
:103DB000FF00000000000000000000000000000004
:083DC0000000000000000000FB
:0400000508000101ED
:00000001FF
